{
    "abi": [
        {
            "inputs": [
                {
                    "internalType": "uint256",
                    "name": "minimum",
                    "type": "uint256"
                },
                {
                    "internalType": "address",
                    "name": "creator",
                    "type": "address"
                }
            ],
            "stateMutability": "nonpayable",
            "type": "constructor"
        },
        {
            "inputs": [
                {
                    "internalType": "uint256",
                    "name": "index",
                    "type": "uint256"
                }
            ],
            "name": "approveRequest",
            "outputs": [],
            "stateMutability": "nonpayable",
            "type": "function"
        },
        {
            "inputs": [
                {
                    "internalType": "address",
                    "name": "",
                    "type": "address"
                }
            ],
            "name": "approvers",
            "outputs": [
                {
                    "internalType": "bool",
                    "name": "",
                    "type": "bool"
                }
            ],
            "stateMutability": "view",
            "type": "function"
        },
        {
            "inputs": [],
            "name": "approversCount",
            "outputs": [
                {
                    "internalType": "uint256",
                    "name": "",
                    "type": "uint256"
                }
            ],
            "stateMutability": "view",
            "type": "function"
        },
        {
            "inputs": [],
            "name": "contribute",
            "outputs": [],
            "stateMutability": "payable",
            "type": "function"
        },
        {
            "inputs": [
                {
                    "internalType": "string",
                    "name": "description",
                    "type": "string"
                },
                {
                    "internalType": "uint256",
                    "name": "value",
                    "type": "uint256"
                },
                {
                    "internalType": "address payable",
                    "name": "recipient",
                    "type": "address"
                }
            ],
            "name": "createRequest",
            "outputs": [],
            "stateMutability": "nonpayable",
            "type": "function"
        },
        {
            "inputs": [
                {
                    "internalType": "uint256",
                    "name": "index",
                    "type": "uint256"
                }
            ],
            "name": "finalizeRequest",
            "outputs": [],
            "stateMutability": "payable",
            "type": "function"
        },
        {
            "inputs": [],
            "name": "manager",
            "outputs": [
                {
                    "internalType": "address",
                    "name": "",
                    "type": "address"
                }
            ],
            "stateMutability": "view",
            "type": "function"
        },
        {
            "inputs": [],
            "name": "minimumContribution",
            "outputs": [
                {
                    "internalType": "uint256",
                    "name": "",
                    "type": "uint256"
                }
            ],
            "stateMutability": "view",
            "type": "function"
        },
        {
            "inputs": [
                {
                    "internalType": "uint256",
                    "name": "",
                    "type": "uint256"
                }
            ],
            "name": "requests",
            "outputs": [
                {
                    "internalType": "string",
                    "name": "description",
                    "type": "string"
                },
                {
                    "internalType": "uint256",
                    "name": "value",
                    "type": "uint256"
                },
                {
                    "internalType": "address payable",
                    "name": "recipient",
                    "type": "address"
                },
                {
                    "internalType": "bool",
                    "name": "complete",
                    "type": "bool"
                },
                {
                    "internalType": "uint256",
                    "name": "approvalCount",
                    "type": "uint256"
                }
            ],
            "stateMutability": "view",
            "type": "function"
        }
    ],
    "devdoc": {
        "kind": "dev",
        "methods": {},
        "version": 1
    },
    "evm": {
        "assembly": "    /* \"Campaign.sol\":448:2292  contract Campaign{... */\n  mstore(0x40, 0x80)\n    /* \"Campaign.sol\":958:1075  constructor(uint minimum,address creator){... */\n  callvalue\n  dup1\n  iszero\n  tag_1\n  jumpi\n  0x00\n  dup1\n  revert\ntag_1:\n  pop\n  mload(0x40)\n  sub(codesize, bytecodeSize)\n  dup1\n  bytecodeSize\n  dup4\n  codecopy\n  dup2\n  dup2\n  add\n  0x40\n  mstore\n  dup2\n  add\n  swap1\n  tag_2\n  swap2\n  swap1\n  tag_3\n  jump\t// in\ntag_2:\n    /* \"Campaign.sol\":1020:1027  creator */\n  dup1\n    /* \"Campaign.sol\":1010:1017  manager */\n  0x00\n  dup1\n    /* \"Campaign.sol\":1010:1027  manager = creator */\n  0x0100\n  exp\n  dup2\n  sload\n  dup2\n  0xffffffffffffffffffffffffffffffffffffffff\n  mul\n  not\n  and\n  swap1\n  dup4\n  0xffffffffffffffffffffffffffffffffffffffff\n  and\n  mul\n  or\n  swap1\n  sstore\n  pop\n    /* \"Campaign.sol\":1060:1067  minimum */\n  dup2\n    /* \"Campaign.sol\":1038:1057  minimumContribution */\n  0x01\n    /* \"Campaign.sol\":1038:1067  minimumContribution = minimum */\n  dup2\n  swap1\n  sstore\n  pop\n    /* \"Campaign.sol\":958:1075  constructor(uint minimum,address creator){... */\n  pop\n  pop\n    /* \"Campaign.sol\":448:2292  contract Campaign{... */\n  jump(tag_6)\n    /* \"#utility.yul\":88:205   */\ntag_8:\n    /* \"#utility.yul\":197:198   */\n  0x00\n    /* \"#utility.yul\":194:195   */\n  dup1\n    /* \"#utility.yul\":187:199   */\n  revert\n    /* \"#utility.yul\":334:411   */\ntag_10:\n    /* \"#utility.yul\":371:378   */\n  0x00\n    /* \"#utility.yul\":400:405   */\n  dup2\n    /* \"#utility.yul\":389:405   */\n  swap1\n  pop\n    /* \"#utility.yul\":334:411   */\n  swap2\n  swap1\n  pop\n  jump\t// out\n    /* \"#utility.yul\":417:539   */\ntag_11:\n    /* \"#utility.yul\":490:514   */\n  tag_23\n    /* \"#utility.yul\":508:513   */\n  dup2\n    /* \"#utility.yul\":490:514   */\n  tag_10\n  jump\t// in\ntag_23:\n    /* \"#utility.yul\":483:488   */\n  dup2\n    /* \"#utility.yul\":480:515   */\n  eq\n    /* \"#utility.yul\":470:533   */\n  tag_24\n  jumpi\n    /* \"#utility.yul\":529:530   */\n  0x00\n    /* \"#utility.yul\":526:527   */\n  dup1\n    /* \"#utility.yul\":519:531   */\n  revert\n    /* \"#utility.yul\":470:533   */\ntag_24:\n    /* \"#utility.yul\":417:539   */\n  pop\n  jump\t// out\n    /* \"#utility.yul\":545:688   */\ntag_12:\n    /* \"#utility.yul\":602:607   */\n  0x00\n    /* \"#utility.yul\":633:639   */\n  dup2\n    /* \"#utility.yul\":627:640   */\n  mload\n    /* \"#utility.yul\":618:640   */\n  swap1\n  pop\n    /* \"#utility.yul\":649:682   */\n  tag_26\n    /* \"#utility.yul\":676:681   */\n  dup2\n    /* \"#utility.yul\":649:682   */\n  tag_11\n  jump\t// in\ntag_26:\n    /* \"#utility.yul\":545:688   */\n  swap3\n  swap2\n  pop\n  pop\n  jump\t// out\n    /* \"#utility.yul\":694:820   */\ntag_13:\n    /* \"#utility.yul\":731:738   */\n  0x00\n    /* \"#utility.yul\":771:813   */\n  0xffffffffffffffffffffffffffffffffffffffff\n    /* \"#utility.yul\":764:769   */\n  dup3\n    /* \"#utility.yul\":760:814   */\n  and\n    /* \"#utility.yul\":749:814   */\n  swap1\n  pop\n    /* \"#utility.yul\":694:820   */\n  swap2\n  swap1\n  pop\n  jump\t// out\n    /* \"#utility.yul\":826:922   */\ntag_14:\n    /* \"#utility.yul\":863:870   */\n  0x00\n    /* \"#utility.yul\":892:916   */\n  tag_29\n    /* \"#utility.yul\":910:915   */\n  dup3\n    /* \"#utility.yul\":892:916   */\n  tag_13\n  jump\t// in\ntag_29:\n    /* \"#utility.yul\":881:916   */\n  swap1\n  pop\n    /* \"#utility.yul\":826:922   */\n  swap2\n  swap1\n  pop\n  jump\t// out\n    /* \"#utility.yul\":928:1050   */\ntag_15:\n    /* \"#utility.yul\":1001:1025   */\n  tag_31\n    /* \"#utility.yul\":1019:1024   */\n  dup2\n    /* \"#utility.yul\":1001:1025   */\n  tag_14\n  jump\t// in\ntag_31:\n    /* \"#utility.yul\":994:999   */\n  dup2\n    /* \"#utility.yul\":991:1026   */\n  eq\n    /* \"#utility.yul\":981:1044   */\n  tag_32\n  jumpi\n    /* \"#utility.yul\":1040:1041   */\n  0x00\n    /* \"#utility.yul\":1037:1038   */\n  dup1\n    /* \"#utility.yul\":1030:1042   */\n  revert\n    /* \"#utility.yul\":981:1044   */\ntag_32:\n    /* \"#utility.yul\":928:1050   */\n  pop\n  jump\t// out\n    /* \"#utility.yul\":1056:1199   */\ntag_16:\n    /* \"#utility.yul\":1113:1118   */\n  0x00\n    /* \"#utility.yul\":1144:1150   */\n  dup2\n    /* \"#utility.yul\":1138:1151   */\n  mload\n    /* \"#utility.yul\":1129:1151   */\n  swap1\n  pop\n    /* \"#utility.yul\":1160:1193   */\n  tag_34\n    /* \"#utility.yul\":1187:1192   */\n  dup2\n    /* \"#utility.yul\":1160:1193   */\n  tag_15\n  jump\t// in\ntag_34:\n    /* \"#utility.yul\":1056:1199   */\n  swap3\n  swap2\n  pop\n  pop\n  jump\t// out\n    /* \"#utility.yul\":1205:1712   */\ntag_3:\n    /* \"#utility.yul\":1284:1290   */\n  0x00\n    /* \"#utility.yul\":1292:1298   */\n  dup1\n    /* \"#utility.yul\":1341:1343   */\n  0x40\n    /* \"#utility.yul\":1329:1338   */\n  dup4\n    /* \"#utility.yul\":1320:1327   */\n  dup6\n    /* \"#utility.yul\":1316:1339   */\n  sub\n    /* \"#utility.yul\":1312:1344   */\n  slt\n    /* \"#utility.yul\":1309:1428   */\n  iszero\n  tag_36\n  jumpi\n    /* \"#utility.yul\":1347:1426   */\n  tag_37\n  tag_8\n  jump\t// in\ntag_37:\n    /* \"#utility.yul\":1309:1428   */\ntag_36:\n    /* \"#utility.yul\":1467:1468   */\n  0x00\n    /* \"#utility.yul\":1492:1556   */\n  tag_38\n    /* \"#utility.yul\":1548:1555   */\n  dup6\n    /* \"#utility.yul\":1539:1545   */\n  dup3\n    /* \"#utility.yul\":1528:1537   */\n  dup7\n    /* \"#utility.yul\":1524:1546   */\n  add\n    /* \"#utility.yul\":1492:1556   */\n  tag_12\n  jump\t// in\ntag_38:\n    /* \"#utility.yul\":1482:1556   */\n  swap3\n  pop\n    /* \"#utility.yul\":1438:1566   */\n  pop\n    /* \"#utility.yul\":1605:1607   */\n  0x20\n    /* \"#utility.yul\":1631:1695   */\n  tag_39\n    /* \"#utility.yul\":1687:1694   */\n  dup6\n    /* \"#utility.yul\":1678:1684   */\n  dup3\n    /* \"#utility.yul\":1667:1676   */\n  dup7\n    /* \"#utility.yul\":1663:1685   */\n  add\n    /* \"#utility.yul\":1631:1695   */\n  tag_16\n  jump\t// in\ntag_39:\n    /* \"#utility.yul\":1621:1695   */\n  swap2\n  pop\n    /* \"#utility.yul\":1576:1705   */\n  pop\n    /* \"#utility.yul\":1205:1712   */\n  swap3\n  pop\n  swap3\n  swap1\n  pop\n  jump\t// out\n    /* \"Campaign.sol\":448:2292  contract Campaign{... */\ntag_6:\n  dataSize(sub_0)\n  dup1\n  dataOffset(sub_0)\n  0x00\n  codecopy\n  0x00\n  return\nstop\n\nsub_0: assembly {\n        /* \"Campaign.sol\":448:2292  contract Campaign{... */\n      mstore(0x40, 0x80)\n      jumpi(tag_1, lt(calldatasize, 0x04))\n      shr(0xe0, calldataload(0x00))\n      dup1\n      0x82fde093\n      gt\n      tag_11\n      jumpi\n      dup1\n      0x82fde093\n      eq\n      tag_6\n      jumpi\n      dup1\n      0x8a9cfd55\n      eq\n      tag_7\n      jumpi\n      dup1\n      0x937e09b1\n      eq\n      tag_8\n      jumpi\n      dup1\n      0xd7bb99ba\n      eq\n      tag_9\n      jumpi\n      dup1\n      0xd7d1bbdb\n      eq\n      tag_10\n      jumpi\n      jump(tag_1)\n    tag_11:\n      dup1\n      0x03441006\n      eq\n      tag_2\n      jumpi\n      dup1\n      0x0a144391\n      eq\n      tag_3\n      jumpi\n      dup1\n      0x481c6a75\n      eq\n      tag_4\n      jumpi\n      dup1\n      0x81d12c58\n      eq\n      tag_5\n      jumpi\n    tag_1:\n      0x00\n      dup1\n      revert\n        /* \"Campaign.sol\":1972:2284  function finalizeRequest(uint index) public payable  restricted{... */\n    tag_2:\n      tag_12\n      0x04\n      dup1\n      calldatasize\n      sub\n      dup2\n      add\n      swap1\n      tag_13\n      swap2\n      swap1\n      tag_14\n      jump\t// in\n    tag_13:\n      tag_15\n      jump\t// in\n    tag_12:\n      stop\n        /* \"Campaign.sol\":753:794  mapping(address => bool) public approvers */\n    tag_3:\n      callvalue\n      dup1\n      iszero\n      tag_16\n      jumpi\n      0x00\n      dup1\n      revert\n    tag_16:\n      pop\n      tag_17\n      0x04\n      dup1\n      calldatasize\n      sub\n      dup2\n      add\n      swap1\n      tag_18\n      swap2\n      swap1\n      tag_19\n      jump\t// in\n    tag_18:\n      tag_20\n      jump\t// in\n    tag_17:\n      mload(0x40)\n      tag_21\n      swap2\n      swap1\n      tag_22\n      jump\t// in\n    tag_21:\n      mload(0x40)\n      dup1\n      swap2\n      sub\n      swap1\n      return\n        /* \"Campaign.sol\":686:708  address public manager */\n    tag_4:\n      callvalue\n      dup1\n      iszero\n      tag_23\n      jumpi\n      0x00\n      dup1\n      revert\n    tag_23:\n      pop\n      tag_24\n      tag_25\n      jump\t// in\n    tag_24:\n      mload(0x40)\n      tag_26\n      swap2\n      swap1\n      tag_27\n      jump\t// in\n    tag_26:\n      mload(0x40)\n      dup1\n      swap2\n      sub\n      swap1\n      return\n        /* \"Campaign.sol\":801:826  Request[] public requests */\n    tag_5:\n      callvalue\n      dup1\n      iszero\n      tag_28\n      jumpi\n      0x00\n      dup1\n      revert\n    tag_28:\n      pop\n      tag_29\n      0x04\n      dup1\n      calldatasize\n      sub\n      dup2\n      add\n      swap1\n      tag_30\n      swap2\n      swap1\n      tag_14\n      jump\t// in\n    tag_30:\n      tag_31\n      jump\t// in\n    tag_29:\n      mload(0x40)\n      tag_32\n      swap6\n      swap5\n      swap4\n      swap3\n      swap2\n      swap1\n      tag_33\n      jump\t// in\n    tag_32:\n      mload(0x40)\n      dup1\n      swap2\n      sub\n      swap1\n      return\n        /* \"Campaign.sol\":833:859  uint public approversCount */\n    tag_6:\n      callvalue\n      dup1\n      iszero\n      tag_34\n      jumpi\n      0x00\n      dup1\n      revert\n    tag_34:\n      pop\n      tag_35\n      tag_36\n      jump\t// in\n    tag_35:\n      mload(0x40)\n      tag_37\n      swap2\n      swap1\n      tag_38\n      jump\t// in\n    tag_37:\n      mload(0x40)\n      dup1\n      swap2\n      sub\n      swap1\n      return\n        /* \"Campaign.sol\":1296:1666  function createRequest(string memory description, uint value,address payable recipient) public restricted{... */\n    tag_7:\n      callvalue\n      dup1\n      iszero\n      tag_39\n      jumpi\n      0x00\n      dup1\n      revert\n    tag_39:\n      pop\n      tag_40\n      0x04\n      dup1\n      calldatasize\n      sub\n      dup2\n      add\n      swap1\n      tag_41\n      swap2\n      swap1\n      tag_42\n      jump\t// in\n    tag_41:\n      tag_43\n      jump\t// in\n    tag_40:\n      stop\n        /* \"Campaign.sol\":715:746  uint public minimumContribution */\n    tag_8:\n      callvalue\n      dup1\n      iszero\n      tag_44\n      jumpi\n      0x00\n      dup1\n      revert\n    tag_44:\n      pop\n      tag_45\n      tag_46\n      jump\t// in\n    tag_45:\n      mload(0x40)\n      tag_47\n      swap2\n      swap1\n      tag_38\n      jump\t// in\n    tag_47:\n      mload(0x40)\n      dup1\n      swap2\n      sub\n      swap1\n      return\n        /* \"Campaign.sol\":1083:1288  function contribute()public payable {... */\n    tag_9:\n      tag_48\n      tag_49\n      jump\t// in\n    tag_48:\n      stop\n        /* \"Campaign.sol\":1674:1963  function approveRequest(uint index) public {... */\n    tag_10:\n      callvalue\n      dup1\n      iszero\n      tag_50\n      jumpi\n      0x00\n      dup1\n      revert\n    tag_50:\n      pop\n      tag_51\n      0x04\n      dup1\n      calldatasize\n      sub\n      dup2\n      add\n      swap1\n      tag_52\n      swap2\n      swap1\n      tag_14\n      jump\t// in\n    tag_52:\n      tag_53\n      jump\t// in\n    tag_51:\n      stop\n        /* \"Campaign.sol\":1972:2284  function finalizeRequest(uint index) public payable  restricted{... */\n    tag_15:\n        /* \"Campaign.sol\":922:929  manager */\n      0x00\n      dup1\n      sload\n      swap1\n      0x0100\n      exp\n      swap1\n      div\n      0xffffffffffffffffffffffffffffffffffffffff\n      and\n        /* \"Campaign.sol\":908:929  msg.sender == manager */\n      0xffffffffffffffffffffffffffffffffffffffff\n      and\n        /* \"Campaign.sol\":908:918  msg.sender */\n      caller\n        /* \"Campaign.sol\":908:929  msg.sender == manager */\n      0xffffffffffffffffffffffffffffffffffffffff\n      and\n      eq\n        /* \"Campaign.sol\":900:930  require(msg.sender == manager) */\n      tag_55\n      jumpi\n      0x00\n      dup1\n      revert\n    tag_55:\n        /* \"Campaign.sol\":2046:2069  Request storage request */\n      0x00\n        /* \"Campaign.sol\":2072:2080  requests */\n      0x03\n        /* \"Campaign.sol\":2081:2086  index */\n      dup3\n        /* \"Campaign.sol\":2072:2087  requests[index] */\n      dup2\n      sload\n      dup2\n      lt\n      tag_57\n      jumpi\n      tag_58\n      tag_59\n      jump\t// in\n    tag_58:\n    tag_57:\n      swap1\n      0x00\n      mstore\n      keccak256(0x00, 0x20)\n      swap1\n      0x05\n      mul\n      add\n        /* \"Campaign.sol\":2046:2087  Request storage request = requests[index] */\n      swap1\n      pop\n        /* \"Campaign.sol\":2107:2114  request */\n      dup1\n        /* \"Campaign.sol\":2107:2123  request.complete */\n      0x02\n      add\n      0x14\n      swap1\n      sload\n      swap1\n      0x0100\n      exp\n      swap1\n      div\n      0xff\n      and\n        /* \"Campaign.sol\":2106:2123  !request.complete */\n      iszero\n        /* \"Campaign.sol\":2098:2124  require(!request.complete) */\n      tag_61\n      jumpi\n      0x00\n      dup1\n      revert\n    tag_61:\n        /* \"Campaign.sol\":2185:2186  2 */\n      0x02\n        /* \"Campaign.sol\":2168:2182  approversCount */\n      sload(0x04)\n        /* \"Campaign.sol\":2168:2186  approversCount / 2 */\n      tag_62\n      swap2\n      swap1\n      tag_63\n      jump\t// in\n    tag_62:\n        /* \"Campaign.sol\":2143:2150  request */\n      dup2\n        /* \"Campaign.sol\":2143:2164  request.approvalCount */\n      0x03\n      add\n      sload\n        /* \"Campaign.sol\":2143:2187  request.approvalCount > (approversCount / 2) */\n      gt\n        /* \"Campaign.sol\":2135:2188  require(request.approvalCount > (approversCount / 2)) */\n      tag_64\n      jumpi\n      0x00\n      dup1\n      revert\n    tag_64:\n        /* \"Campaign.sol\":2201:2208  request */\n      dup1\n        /* \"Campaign.sol\":2201:2218  request.recipient */\n      0x02\n      add\n      0x00\n      swap1\n      sload\n      swap1\n      0x0100\n      exp\n      swap1\n      div\n      0xffffffffffffffffffffffffffffffffffffffff\n      and\n        /* \"Campaign.sol\":2201:2227  request.recipient.transfer */\n      0xffffffffffffffffffffffffffffffffffffffff\n      and\n        /* \"Campaign.sol\":2201:2242  request.recipient.transfer(request.value) */\n      0x08fc\n        /* \"Campaign.sol\":2228:2235  request */\n      dup3\n        /* \"Campaign.sol\":2228:2241  request.value */\n      0x01\n      add\n      sload\n        /* \"Campaign.sol\":2201:2242  request.recipient.transfer(request.value) */\n      swap1\n      dup2\n      iszero\n      mul\n      swap1\n      mload(0x40)\n      0x00\n      mload(0x40)\n      dup1\n      dup4\n      sub\n      dup2\n      dup6\n      dup9\n      dup9\n      call\n      swap4\n      pop\n      pop\n      pop\n      pop\n      iszero\n      dup1\n      iszero\n      tag_66\n      jumpi\n      returndatasize\n      0x00\n      dup1\n      returndatacopy\n      revert(0x00, returndatasize)\n    tag_66:\n      pop\n        /* \"Campaign.sol\":2272:2276  true */\n      0x01\n        /* \"Campaign.sol\":2253:2260  request */\n      dup2\n        /* \"Campaign.sol\":2253:2269  request.complete */\n      0x02\n      add\n      0x14\n        /* \"Campaign.sol\":2253:2276  request.complete = true */\n      0x0100\n      exp\n      dup2\n      sload\n      dup2\n      0xff\n      mul\n      not\n      and\n      swap1\n      dup4\n      iszero\n      iszero\n      mul\n      or\n      swap1\n      sstore\n      pop\n        /* \"Campaign.sol\":2035:2284  {... */\n      pop\n        /* \"Campaign.sol\":1972:2284  function finalizeRequest(uint index) public payable  restricted{... */\n      pop\n      jump\t// out\n        /* \"Campaign.sol\":753:794  mapping(address => bool) public approvers */\n    tag_20:\n      mstore(0x20, 0x02)\n      dup1\n      0x00\n      mstore\n      keccak256(0x00, 0x40)\n      0x00\n      swap2\n      pop\n      sload\n      swap1\n      0x0100\n      exp\n      swap1\n      div\n      0xff\n      and\n      dup2\n      jump\t// out\n        /* \"Campaign.sol\":686:708  address public manager */\n    tag_25:\n      0x00\n      dup1\n      sload\n      swap1\n      0x0100\n      exp\n      swap1\n      div\n      0xffffffffffffffffffffffffffffffffffffffff\n      and\n      dup2\n      jump\t// out\n        /* \"Campaign.sol\":801:826  Request[] public requests */\n    tag_31:\n      0x03\n      dup2\n      dup2\n      sload\n      dup2\n      lt\n      tag_67\n      jumpi\n      0x00\n      dup1\n      revert\n    tag_67:\n      swap1\n      0x00\n      mstore\n      keccak256(0x00, 0x20)\n      swap1\n      0x05\n      mul\n      add\n      0x00\n      swap2\n      pop\n      swap1\n      pop\n      dup1\n      0x00\n      add\n      dup1\n      sload\n      tag_69\n      swap1\n      tag_70\n      jump\t// in\n    tag_69:\n      dup1\n      0x1f\n      add\n      0x20\n      dup1\n      swap2\n      div\n      mul\n      0x20\n      add\n      mload(0x40)\n      swap1\n      dup2\n      add\n      0x40\n      mstore\n      dup1\n      swap3\n      swap2\n      swap1\n      dup2\n      dup2\n      mstore\n      0x20\n      add\n      dup3\n      dup1\n      sload\n      tag_71\n      swap1\n      tag_70\n      jump\t// in\n    tag_71:\n      dup1\n      iszero\n      tag_72\n      jumpi\n      dup1\n      0x1f\n      lt\n      tag_73\n      jumpi\n      0x0100\n      dup1\n      dup4\n      sload\n      div\n      mul\n      dup4\n      mstore\n      swap2\n      0x20\n      add\n      swap2\n      jump(tag_72)\n    tag_73:\n      dup3\n      add\n      swap2\n      swap1\n      0x00\n      mstore\n      keccak256(0x00, 0x20)\n      swap1\n    tag_74:\n      dup2\n      sload\n      dup2\n      mstore\n      swap1\n      0x01\n      add\n      swap1\n      0x20\n      add\n      dup1\n      dup4\n      gt\n      tag_74\n      jumpi\n      dup3\n      swap1\n      sub\n      0x1f\n      and\n      dup3\n      add\n      swap2\n    tag_72:\n      pop\n      pop\n      pop\n      pop\n      pop\n      swap1\n      dup1\n      0x01\n      add\n      sload\n      swap1\n      dup1\n      0x02\n      add\n      0x00\n      swap1\n      sload\n      swap1\n      0x0100\n      exp\n      swap1\n      div\n      0xffffffffffffffffffffffffffffffffffffffff\n      and\n      swap1\n      dup1\n      0x02\n      add\n      0x14\n      swap1\n      sload\n      swap1\n      0x0100\n      exp\n      swap1\n      div\n      0xff\n      and\n      swap1\n      dup1\n      0x03\n      add\n      sload\n      swap1\n      pop\n      dup6\n      jump\t// out\n        /* \"Campaign.sol\":833:859  uint public approversCount */\n    tag_36:\n      sload(0x04)\n      dup2\n      jump\t// out\n        /* \"Campaign.sol\":1296:1666  function createRequest(string memory description, uint value,address payable recipient) public restricted{... */\n    tag_43:\n        /* \"Campaign.sol\":922:929  manager */\n      0x00\n      dup1\n      sload\n      swap1\n      0x0100\n      exp\n      swap1\n      div\n      0xffffffffffffffffffffffffffffffffffffffff\n      and\n        /* \"Campaign.sol\":908:929  msg.sender == manager */\n      0xffffffffffffffffffffffffffffffffffffffff\n      and\n        /* \"Campaign.sol\":908:918  msg.sender */\n      caller\n        /* \"Campaign.sol\":908:929  msg.sender == manager */\n      0xffffffffffffffffffffffffffffffffffffffff\n      and\n      eq\n        /* \"Campaign.sol\":900:930  require(msg.sender == manager) */\n      tag_76\n      jumpi\n      0x00\n      dup1\n      revert\n    tag_76:\n        /* \"Campaign.sol\":1412:1438  Request storage newRequest */\n      0x00\n        /* \"Campaign.sol\":1441:1449  requests */\n      0x03\n        /* \"Campaign.sol\":1441:1456  requests.push() */\n      0x01\n      dup2\n      0x01\n      dup2\n      sload\n      add\n      dup1\n      dup3\n      sstore\n      dup1\n      swap2\n      pop\n      pop\n      sub\n      swap1\n      0x00\n      mstore\n      keccak256(0x00, 0x20)\n      swap1\n      0x05\n      mul\n      add\n        /* \"Campaign.sol\":1412:1456  Request storage newRequest = requests.push() */\n      swap1\n      pop\n        /* \"Campaign.sol\":1492:1503  description */\n      dup4\n        /* \"Campaign.sol\":1467:1477  newRequest */\n      dup2\n        /* \"Campaign.sol\":1467:1489  newRequest.description */\n      0x00\n      add\n        /* \"Campaign.sol\":1467:1503  newRequest.description = description */\n      swap1\n      dup2\n      tag_79\n      swap2\n      swap1\n      tag_80\n      jump\t// in\n    tag_79:\n      pop\n        /* \"Campaign.sol\":1533:1538  value */\n      dup3\n        /* \"Campaign.sol\":1514:1524  newRequest */\n      dup2\n        /* \"Campaign.sol\":1514:1530  newRequest.value */\n      0x01\n      add\n        /* \"Campaign.sol\":1514:1538  newRequest.value = value */\n      dup2\n      swap1\n      sstore\n      pop\n        /* \"Campaign.sol\":1572:1581  recipient */\n      dup2\n        /* \"Campaign.sol\":1549:1559  newRequest */\n      dup2\n        /* \"Campaign.sol\":1549:1569  newRequest.recipient */\n      0x02\n      add\n      0x00\n        /* \"Campaign.sol\":1549:1581  newRequest.recipient = recipient */\n      0x0100\n      exp\n      dup2\n      sload\n      dup2\n      0xffffffffffffffffffffffffffffffffffffffff\n      mul\n      not\n      and\n      swap1\n      dup4\n      0xffffffffffffffffffffffffffffffffffffffff\n      and\n      mul\n      or\n      swap1\n      sstore\n      pop\n        /* \"Campaign.sol\":1614:1619  false */\n      0x00\n        /* \"Campaign.sol\":1592:1602  newRequest */\n      dup2\n        /* \"Campaign.sol\":1592:1611  newRequest.complete */\n      0x02\n      add\n      0x14\n        /* \"Campaign.sol\":1592:1619  newRequest.complete = false */\n      0x0100\n      exp\n      dup2\n      sload\n      dup2\n      0xff\n      mul\n      not\n      and\n      swap1\n      dup4\n      iszero\n      iszero\n      mul\n      or\n      swap1\n      sstore\n      pop\n        /* \"Campaign.sol\":1657:1658  0 */\n      0x00\n        /* \"Campaign.sol\":1630:1640  newRequest */\n      dup2\n        /* \"Campaign.sol\":1630:1654  newRequest.approvalCount */\n      0x03\n      add\n        /* \"Campaign.sol\":1630:1658  newRequest.approvalCount = 0 */\n      dup2\n      swap1\n      sstore\n      pop\n        /* \"Campaign.sol\":1401:1666  {... */\n      pop\n        /* \"Campaign.sol\":1296:1666  function createRequest(string memory description, uint value,address payable recipient) public restricted{... */\n      pop\n      pop\n      pop\n      jump\t// out\n        /* \"Campaign.sol\":715:746  uint public minimumContribution */\n    tag_46:\n      sload(0x01)\n      dup2\n      jump\t// out\n        /* \"Campaign.sol\":1083:1288  function contribute()public payable {... */\n    tag_49:\n        /* \"Campaign.sol\":1150:1169  minimumContribution */\n      sload(0x01)\n        /* \"Campaign.sol\":1138:1147  msg.value */\n      callvalue\n        /* \"Campaign.sol\":1138:1169  msg.value > minimumContribution */\n      gt\n        /* \"Campaign.sol\":1130:1213  require(msg.value > minimumContribution,\"Please enter the minimum amount of ether\") */\n      tag_82\n      jumpi\n      mload(0x40)\n      0x08c379a000000000000000000000000000000000000000000000000000000000\n      dup2\n      mstore\n      0x04\n      add\n      tag_83\n      swap1\n      tag_84\n      jump\t// in\n    tag_83:\n      mload(0x40)\n      dup1\n      swap2\n      sub\n      swap1\n      revert\n    tag_82:\n        /* \"Campaign.sol\":1248:1252  true */\n      0x01\n        /* \"Campaign.sol\":1224:1233  approvers */\n      0x02\n        /* \"Campaign.sol\":1224:1245  approvers[msg.sender] */\n      0x00\n        /* \"Campaign.sol\":1234:1244  msg.sender */\n      caller\n        /* \"Campaign.sol\":1224:1245  approvers[msg.sender] */\n      0xffffffffffffffffffffffffffffffffffffffff\n      and\n      0xffffffffffffffffffffffffffffffffffffffff\n      and\n      dup2\n      mstore\n      0x20\n      add\n      swap1\n      dup2\n      mstore\n      0x20\n      add\n      0x00\n      keccak256\n      0x00\n        /* \"Campaign.sol\":1224:1252  approvers[msg.sender] = true */\n      0x0100\n      exp\n      dup2\n      sload\n      dup2\n      0xff\n      mul\n      not\n      and\n      swap1\n      dup4\n      iszero\n      iszero\n      mul\n      or\n      swap1\n      sstore\n      pop\n        /* \"Campaign.sol\":1263:1277  approversCount */\n      0x04\n      0x00\n        /* \"Campaign.sol\":1263:1280  approversCount ++ */\n      dup2\n      sload\n      dup1\n      swap3\n      swap2\n      swap1\n      tag_85\n      swap1\n      tag_86\n      jump\t// in\n    tag_85:\n      swap2\n      swap1\n      pop\n      sstore\n      pop\n        /* \"Campaign.sol\":1083:1288  function contribute()public payable {... */\n      jump\t// out\n        /* \"Campaign.sol\":1674:1963  function approveRequest(uint index) public {... */\n    tag_53:\n        /* \"Campaign.sol\":1728:1751  Request storage request */\n      0x00\n        /* \"Campaign.sol\":1754:1762  requests */\n      0x03\n        /* \"Campaign.sol\":1763:1768  index */\n      dup3\n        /* \"Campaign.sol\":1754:1769  requests[index] */\n      dup2\n      sload\n      dup2\n      lt\n      tag_88\n      jumpi\n      tag_89\n      tag_59\n      jump\t// in\n    tag_89:\n    tag_88:\n      swap1\n      0x00\n      mstore\n      keccak256(0x00, 0x20)\n      swap1\n      0x05\n      mul\n      add\n        /* \"Campaign.sol\":1728:1769  Request storage request = requests[index] */\n      swap1\n      pop\n        /* \"Campaign.sol\":1790:1799  approvers */\n      0x02\n        /* \"Campaign.sol\":1790:1811  approvers[msg.sender] */\n      0x00\n        /* \"Campaign.sol\":1800:1810  msg.sender */\n      caller\n        /* \"Campaign.sol\":1790:1811  approvers[msg.sender] */\n      0xffffffffffffffffffffffffffffffffffffffff\n      and\n      0xffffffffffffffffffffffffffffffffffffffff\n      and\n      dup2\n      mstore\n      0x20\n      add\n      swap1\n      dup2\n      mstore\n      0x20\n      add\n      0x00\n      keccak256\n      0x00\n      swap1\n      sload\n      swap1\n      0x0100\n      exp\n      swap1\n      div\n      0xff\n      and\n        /* \"Campaign.sol\":1782:1812  require(approvers[msg.sender]) */\n      tag_91\n      jumpi\n      0x00\n      dup1\n      revert\n    tag_91:\n        /* \"Campaign.sol\":1832:1839  request */\n      dup1\n        /* \"Campaign.sol\":1832:1849  request.approvals */\n      0x04\n      add\n        /* \"Campaign.sol\":1832:1861  request.approvals[msg.sender] */\n      0x00\n        /* \"Campaign.sol\":1850:1860  msg.sender */\n      caller\n        /* \"Campaign.sol\":1832:1861  request.approvals[msg.sender] */\n      0xffffffffffffffffffffffffffffffffffffffff\n      and\n      0xffffffffffffffffffffffffffffffffffffffff\n      and\n      dup2\n      mstore\n      0x20\n      add\n      swap1\n      dup2\n      mstore\n      0x20\n      add\n      0x00\n      keccak256\n      0x00\n      swap1\n      sload\n      swap1\n      0x0100\n      exp\n      swap1\n      div\n      0xff\n      and\n        /* \"Campaign.sol\":1831:1861  !request.approvals[msg.sender] */\n      iszero\n        /* \"Campaign.sol\":1823:1862  require(!request.approvals[msg.sender]) */\n      tag_92\n      jumpi\n      0x00\n      dup1\n      revert\n    tag_92:\n        /* \"Campaign.sol\":1914:1918  true */\n      0x01\n        /* \"Campaign.sol\":1882:1889  request */\n      dup2\n        /* \"Campaign.sol\":1882:1899  request.approvals */\n      0x04\n      add\n        /* \"Campaign.sol\":1882:1911  request.approvals[msg.sender] */\n      0x00\n        /* \"Campaign.sol\":1900:1910  msg.sender */\n      caller\n        /* \"Campaign.sol\":1882:1911  request.approvals[msg.sender] */\n      0xffffffffffffffffffffffffffffffffffffffff\n      and\n      0xffffffffffffffffffffffffffffffffffffffff\n      and\n      dup2\n      mstore\n      0x20\n      add\n      swap1\n      dup2\n      mstore\n      0x20\n      add\n      0x00\n      keccak256\n      0x00\n        /* \"Campaign.sol\":1882:1918  request.approvals[msg.sender] = true */\n      0x0100\n      exp\n      dup2\n      sload\n      dup2\n      0xff\n      mul\n      not\n      and\n      swap1\n      dup4\n      iszero\n      iszero\n      mul\n      or\n      swap1\n      sstore\n      pop\n        /* \"Campaign.sol\":1929:1936  request */\n      dup1\n        /* \"Campaign.sol\":1929:1950  request.approvalCount */\n      0x03\n      add\n      0x00\n        /* \"Campaign.sol\":1929:1953  request.approvalCount ++ */\n      dup2\n      sload\n      dup1\n      swap3\n      swap2\n      swap1\n      tag_93\n      swap1\n      tag_86\n      jump\t// in\n    tag_93:\n      swap2\n      swap1\n      pop\n      sstore\n      pop\n        /* \"Campaign.sol\":1717:1963  {... */\n      pop\n        /* \"Campaign.sol\":1674:1963  function approveRequest(uint index) public {... */\n      pop\n      jump\t// out\n        /* \"#utility.yul\":7:82   */\n    tag_94:\n        /* \"#utility.yul\":40:46   */\n      0x00\n        /* \"#utility.yul\":73:75   */\n      0x40\n        /* \"#utility.yul\":67:76   */\n      mload\n        /* \"#utility.yul\":57:76   */\n      swap1\n      pop\n        /* \"#utility.yul\":7:82   */\n      swap1\n      jump\t// out\n        /* \"#utility.yul\":88:205   */\n    tag_95:\n        /* \"#utility.yul\":197:198   */\n      0x00\n        /* \"#utility.yul\":194:195   */\n      dup1\n        /* \"#utility.yul\":187:199   */\n      revert\n        /* \"#utility.yul\":211:328   */\n    tag_96:\n        /* \"#utility.yul\":320:321   */\n      0x00\n        /* \"#utility.yul\":317:318   */\n      dup1\n        /* \"#utility.yul\":310:322   */\n      revert\n        /* \"#utility.yul\":334:411   */\n    tag_97:\n        /* \"#utility.yul\":371:378   */\n      0x00\n        /* \"#utility.yul\":400:405   */\n      dup2\n        /* \"#utility.yul\":389:405   */\n      swap1\n      pop\n        /* \"#utility.yul\":334:411   */\n      swap2\n      swap1\n      pop\n      jump\t// out\n        /* \"#utility.yul\":417:539   */\n    tag_98:\n        /* \"#utility.yul\":490:514   */\n      tag_152\n        /* \"#utility.yul\":508:513   */\n      dup2\n        /* \"#utility.yul\":490:514   */\n      tag_97\n      jump\t// in\n    tag_152:\n        /* \"#utility.yul\":483:488   */\n      dup2\n        /* \"#utility.yul\":480:515   */\n      eq\n        /* \"#utility.yul\":470:533   */\n      tag_153\n      jumpi\n        /* \"#utility.yul\":529:530   */\n      0x00\n        /* \"#utility.yul\":526:527   */\n      dup1\n        /* \"#utility.yul\":519:531   */\n      revert\n        /* \"#utility.yul\":470:533   */\n    tag_153:\n        /* \"#utility.yul\":417:539   */\n      pop\n      jump\t// out\n        /* \"#utility.yul\":545:684   */\n    tag_99:\n        /* \"#utility.yul\":591:596   */\n      0x00\n        /* \"#utility.yul\":629:635   */\n      dup2\n        /* \"#utility.yul\":616:636   */\n      calldataload\n        /* \"#utility.yul\":607:636   */\n      swap1\n      pop\n        /* \"#utility.yul\":645:678   */\n      tag_155\n        /* \"#utility.yul\":672:677   */\n      dup2\n        /* \"#utility.yul\":645:678   */\n      tag_98\n      jump\t// in\n    tag_155:\n        /* \"#utility.yul\":545:684   */\n      swap3\n      swap2\n      pop\n      pop\n      jump\t// out\n        /* \"#utility.yul\":690:1019   */\n    tag_14:\n        /* \"#utility.yul\":749:755   */\n      0x00\n        /* \"#utility.yul\":798:800   */\n      0x20\n        /* \"#utility.yul\":786:795   */\n      dup3\n        /* \"#utility.yul\":777:784   */\n      dup5\n        /* \"#utility.yul\":773:796   */\n      sub\n        /* \"#utility.yul\":769:801   */\n      slt\n        /* \"#utility.yul\":766:885   */\n      iszero\n      tag_157\n      jumpi\n        /* \"#utility.yul\":804:883   */\n      tag_158\n      tag_95\n      jump\t// in\n    tag_158:\n        /* \"#utility.yul\":766:885   */\n    tag_157:\n        /* \"#utility.yul\":924:925   */\n      0x00\n        /* \"#utility.yul\":949:1002   */\n      tag_159\n        /* \"#utility.yul\":994:1001   */\n      dup5\n        /* \"#utility.yul\":985:991   */\n      dup3\n        /* \"#utility.yul\":974:983   */\n      dup6\n        /* \"#utility.yul\":970:992   */\n      add\n        /* \"#utility.yul\":949:1002   */\n      tag_99\n      jump\t// in\n    tag_159:\n        /* \"#utility.yul\":939:1002   */\n      swap2\n      pop\n        /* \"#utility.yul\":895:1012   */\n      pop\n        /* \"#utility.yul\":690:1019   */\n      swap3\n      swap2\n      pop\n      pop\n      jump\t// out\n        /* \"#utility.yul\":1025:1151   */\n    tag_100:\n        /* \"#utility.yul\":1062:1069   */\n      0x00\n        /* \"#utility.yul\":1102:1144   */\n      0xffffffffffffffffffffffffffffffffffffffff\n        /* \"#utility.yul\":1095:1100   */\n      dup3\n        /* \"#utility.yul\":1091:1145   */\n      and\n        /* \"#utility.yul\":1080:1145   */\n      swap1\n      pop\n        /* \"#utility.yul\":1025:1151   */\n      swap2\n      swap1\n      pop\n      jump\t// out\n        /* \"#utility.yul\":1157:1253   */\n    tag_101:\n        /* \"#utility.yul\":1194:1201   */\n      0x00\n        /* \"#utility.yul\":1223:1247   */\n      tag_162\n        /* \"#utility.yul\":1241:1246   */\n      dup3\n        /* \"#utility.yul\":1223:1247   */\n      tag_100\n      jump\t// in\n    tag_162:\n        /* \"#utility.yul\":1212:1247   */\n      swap1\n      pop\n        /* \"#utility.yul\":1157:1253   */\n      swap2\n      swap1\n      pop\n      jump\t// out\n        /* \"#utility.yul\":1259:1381   */\n    tag_102:\n        /* \"#utility.yul\":1332:1356   */\n      tag_164\n        /* \"#utility.yul\":1350:1355   */\n      dup2\n        /* \"#utility.yul\":1332:1356   */\n      tag_101\n      jump\t// in\n    tag_164:\n        /* \"#utility.yul\":1325:1330   */\n      dup2\n        /* \"#utility.yul\":1322:1357   */\n      eq\n        /* \"#utility.yul\":1312:1375   */\n      tag_165\n      jumpi\n        /* \"#utility.yul\":1371:1372   */\n      0x00\n        /* \"#utility.yul\":1368:1369   */\n      dup1\n        /* \"#utility.yul\":1361:1373   */\n      revert\n        /* \"#utility.yul\":1312:1375   */\n    tag_165:\n        /* \"#utility.yul\":1259:1381   */\n      pop\n      jump\t// out\n        /* \"#utility.yul\":1387:1526   */\n    tag_103:\n        /* \"#utility.yul\":1433:1438   */\n      0x00\n        /* \"#utility.yul\":1471:1477   */\n      dup2\n        /* \"#utility.yul\":1458:1478   */\n      calldataload\n        /* \"#utility.yul\":1449:1478   */\n      swap1\n      pop\n        /* \"#utility.yul\":1487:1520   */\n      tag_167\n        /* \"#utility.yul\":1514:1519   */\n      dup2\n        /* \"#utility.yul\":1487:1520   */\n      tag_102\n      jump\t// in\n    tag_167:\n        /* \"#utility.yul\":1387:1526   */\n      swap3\n      swap2\n      pop\n      pop\n      jump\t// out\n        /* \"#utility.yul\":1532:1861   */\n    tag_19:\n        /* \"#utility.yul\":1591:1597   */\n      0x00\n        /* \"#utility.yul\":1640:1642   */\n      0x20\n        /* \"#utility.yul\":1628:1637   */\n      dup3\n        /* \"#utility.yul\":1619:1626   */\n      dup5\n        /* \"#utility.yul\":1615:1638   */\n      sub\n        /* \"#utility.yul\":1611:1643   */\n      slt\n        /* \"#utility.yul\":1608:1727   */\n      iszero\n      tag_169\n      jumpi\n        /* \"#utility.yul\":1646:1725   */\n      tag_170\n      tag_95\n      jump\t// in\n    tag_170:\n        /* \"#utility.yul\":1608:1727   */\n    tag_169:\n        /* \"#utility.yul\":1766:1767   */\n      0x00\n        /* \"#utility.yul\":1791:1844   */\n      tag_171\n        /* \"#utility.yul\":1836:1843   */\n      dup5\n        /* \"#utility.yul\":1827:1833   */\n      dup3\n        /* \"#utility.yul\":1816:1825   */\n      dup6\n        /* \"#utility.yul\":1812:1834   */\n      add\n        /* \"#utility.yul\":1791:1844   */\n      tag_103\n      jump\t// in\n    tag_171:\n        /* \"#utility.yul\":1781:1844   */\n      swap2\n      pop\n        /* \"#utility.yul\":1737:1854   */\n      pop\n        /* \"#utility.yul\":1532:1861   */\n      swap3\n      swap2\n      pop\n      pop\n      jump\t// out\n        /* \"#utility.yul\":1867:1957   */\n    tag_104:\n        /* \"#utility.yul\":1901:1908   */\n      0x00\n        /* \"#utility.yul\":1944:1949   */\n      dup2\n        /* \"#utility.yul\":1937:1950   */\n      iszero\n        /* \"#utility.yul\":1930:1951   */\n      iszero\n        /* \"#utility.yul\":1919:1951   */\n      swap1\n      pop\n        /* \"#utility.yul\":1867:1957   */\n      swap2\n      swap1\n      pop\n      jump\t// out\n        /* \"#utility.yul\":1963:2072   */\n    tag_105:\n        /* \"#utility.yul\":2044:2065   */\n      tag_174\n        /* \"#utility.yul\":2059:2064   */\n      dup2\n        /* \"#utility.yul\":2044:2065   */\n      tag_104\n      jump\t// in\n    tag_174:\n        /* \"#utility.yul\":2039:2042   */\n      dup3\n        /* \"#utility.yul\":2032:2066   */\n      mstore\n        /* \"#utility.yul\":1963:2072   */\n      pop\n      pop\n      jump\t// out\n        /* \"#utility.yul\":2078:2288   */\n    tag_22:\n        /* \"#utility.yul\":2165:2169   */\n      0x00\n        /* \"#utility.yul\":2203:2205   */\n      0x20\n        /* \"#utility.yul\":2192:2201   */\n      dup3\n        /* \"#utility.yul\":2188:2206   */\n      add\n        /* \"#utility.yul\":2180:2206   */\n      swap1\n      pop\n        /* \"#utility.yul\":2216:2281   */\n      tag_176\n        /* \"#utility.yul\":2278:2279   */\n      0x00\n        /* \"#utility.yul\":2267:2276   */\n      dup4\n        /* \"#utility.yul\":2263:2280   */\n      add\n        /* \"#utility.yul\":2254:2260   */\n      dup5\n        /* \"#utility.yul\":2216:2281   */\n      tag_105\n      jump\t// in\n    tag_176:\n        /* \"#utility.yul\":2078:2288   */\n      swap3\n      swap2\n      pop\n      pop\n      jump\t// out\n        /* \"#utility.yul\":2294:2412   */\n    tag_106:\n        /* \"#utility.yul\":2381:2405   */\n      tag_178\n        /* \"#utility.yul\":2399:2404   */\n      dup2\n        /* \"#utility.yul\":2381:2405   */\n      tag_101\n      jump\t// in\n    tag_178:\n        /* \"#utility.yul\":2376:2379   */\n      dup3\n        /* \"#utility.yul\":2369:2406   */\n      mstore\n        /* \"#utility.yul\":2294:2412   */\n      pop\n      pop\n      jump\t// out\n        /* \"#utility.yul\":2418:2640   */\n    tag_27:\n        /* \"#utility.yul\":2511:2515   */\n      0x00\n        /* \"#utility.yul\":2549:2551   */\n      0x20\n        /* \"#utility.yul\":2538:2547   */\n      dup3\n        /* \"#utility.yul\":2534:2552   */\n      add\n        /* \"#utility.yul\":2526:2552   */\n      swap1\n      pop\n        /* \"#utility.yul\":2562:2633   */\n      tag_180\n        /* \"#utility.yul\":2630:2631   */\n      0x00\n        /* \"#utility.yul\":2619:2628   */\n      dup4\n        /* \"#utility.yul\":2615:2632   */\n      add\n        /* \"#utility.yul\":2606:2612   */\n      dup5\n        /* \"#utility.yul\":2562:2633   */\n      tag_106\n      jump\t// in\n    tag_180:\n        /* \"#utility.yul\":2418:2640   */\n      swap3\n      swap2\n      pop\n      pop\n      jump\t// out\n        /* \"#utility.yul\":2646:2745   */\n    tag_107:\n        /* \"#utility.yul\":2698:2704   */\n      0x00\n        /* \"#utility.yul\":2732:2737   */\n      dup2\n        /* \"#utility.yul\":2726:2738   */\n      mload\n        /* \"#utility.yul\":2716:2738   */\n      swap1\n      pop\n        /* \"#utility.yul\":2646:2745   */\n      swap2\n      swap1\n      pop\n      jump\t// out\n        /* \"#utility.yul\":2751:2920   */\n    tag_108:\n        /* \"#utility.yul\":2835:2846   */\n      0x00\n        /* \"#utility.yul\":2869:2875   */\n      dup3\n        /* \"#utility.yul\":2864:2867   */\n      dup3\n        /* \"#utility.yul\":2857:2876   */\n      mstore\n        /* \"#utility.yul\":2909:2913   */\n      0x20\n        /* \"#utility.yul\":2904:2907   */\n      dup3\n        /* \"#utility.yul\":2900:2914   */\n      add\n        /* \"#utility.yul\":2885:2914   */\n      swap1\n      pop\n        /* \"#utility.yul\":2751:2920   */\n      swap3\n      swap2\n      pop\n      pop\n      jump\t// out\n        /* \"#utility.yul\":2926:3172   */\n    tag_109:\n        /* \"#utility.yul\":3007:3008   */\n      0x00\n        /* \"#utility.yul\":3017:3130   */\n    tag_184:\n        /* \"#utility.yul\":3031:3037   */\n      dup4\n        /* \"#utility.yul\":3028:3029   */\n      dup2\n        /* \"#utility.yul\":3025:3038   */\n      lt\n        /* \"#utility.yul\":3017:3130   */\n      iszero\n      tag_186\n      jumpi\n        /* \"#utility.yul\":3116:3117   */\n      dup1\n        /* \"#utility.yul\":3111:3114   */\n      dup3\n        /* \"#utility.yul\":3107:3118   */\n      add\n        /* \"#utility.yul\":3101:3119   */\n      mload\n        /* \"#utility.yul\":3097:3098   */\n      dup2\n        /* \"#utility.yul\":3092:3095   */\n      dup5\n        /* \"#utility.yul\":3088:3099   */\n      add\n        /* \"#utility.yul\":3081:3120   */\n      mstore\n        /* \"#utility.yul\":3053:3055   */\n      0x20\n        /* \"#utility.yul\":3050:3051   */\n      dup2\n        /* \"#utility.yul\":3046:3056   */\n      add\n        /* \"#utility.yul\":3041:3056   */\n      swap1\n      pop\n        /* \"#utility.yul\":3017:3130   */\n      jump(tag_184)\n    tag_186:\n        /* \"#utility.yul\":3164:3165   */\n      0x00\n        /* \"#utility.yul\":3155:3161   */\n      dup5\n        /* \"#utility.yul\":3150:3153   */\n      dup5\n        /* \"#utility.yul\":3146:3162   */\n      add\n        /* \"#utility.yul\":3139:3166   */\n      mstore\n        /* \"#utility.yul\":2988:3172   */\n      pop\n        /* \"#utility.yul\":2926:3172   */\n      pop\n      pop\n      pop\n      jump\t// out\n        /* \"#utility.yul\":3178:3280   */\n    tag_110:\n        /* \"#utility.yul\":3219:3225   */\n      0x00\n        /* \"#utility.yul\":3270:3272   */\n      0x1f\n        /* \"#utility.yul\":3266:3273   */\n      not\n        /* \"#utility.yul\":3261:3263   */\n      0x1f\n        /* \"#utility.yul\":3254:3259   */\n      dup4\n        /* \"#utility.yul\":3250:3264   */\n      add\n        /* \"#utility.yul\":3246:3274   */\n      and\n        /* \"#utility.yul\":3236:3274   */\n      swap1\n      pop\n        /* \"#utility.yul\":3178:3280   */\n      swap2\n      swap1\n      pop\n      jump\t// out\n        /* \"#utility.yul\":3286:3663   */\n    tag_111:\n        /* \"#utility.yul\":3374:3377   */\n      0x00\n        /* \"#utility.yul\":3402:3441   */\n      tag_189\n        /* \"#utility.yul\":3435:3440   */\n      dup3\n        /* \"#utility.yul\":3402:3441   */\n      tag_107\n      jump\t// in\n    tag_189:\n        /* \"#utility.yul\":3457:3528   */\n      tag_190\n        /* \"#utility.yul\":3521:3527   */\n      dup2\n        /* \"#utility.yul\":3516:3519   */\n      dup6\n        /* \"#utility.yul\":3457:3528   */\n      tag_108\n      jump\t// in\n    tag_190:\n        /* \"#utility.yul\":3450:3528   */\n      swap4\n      pop\n        /* \"#utility.yul\":3537:3602   */\n      tag_191\n        /* \"#utility.yul\":3595:3601   */\n      dup2\n        /* \"#utility.yul\":3590:3593   */\n      dup6\n        /* \"#utility.yul\":3583:3587   */\n      0x20\n        /* \"#utility.yul\":3576:3581   */\n      dup7\n        /* \"#utility.yul\":3572:3588   */\n      add\n        /* \"#utility.yul\":3537:3602   */\n      tag_109\n      jump\t// in\n    tag_191:\n        /* \"#utility.yul\":3627:3656   */\n      tag_192\n        /* \"#utility.yul\":3649:3655   */\n      dup2\n        /* \"#utility.yul\":3627:3656   */\n      tag_110\n      jump\t// in\n    tag_192:\n        /* \"#utility.yul\":3622:3625   */\n      dup5\n        /* \"#utility.yul\":3618:3657   */\n      add\n        /* \"#utility.yul\":3611:3657   */\n      swap2\n      pop\n        /* \"#utility.yul\":3378:3663   */\n      pop\n        /* \"#utility.yul\":3286:3663   */\n      swap3\n      swap2\n      pop\n      pop\n      jump\t// out\n        /* \"#utility.yul\":3669:3787   */\n    tag_112:\n        /* \"#utility.yul\":3756:3780   */\n      tag_194\n        /* \"#utility.yul\":3774:3779   */\n      dup2\n        /* \"#utility.yul\":3756:3780   */\n      tag_97\n      jump\t// in\n    tag_194:\n        /* \"#utility.yul\":3751:3754   */\n      dup3\n        /* \"#utility.yul\":3744:3781   */\n      mstore\n        /* \"#utility.yul\":3669:3787   */\n      pop\n      pop\n      jump\t// out\n        /* \"#utility.yul\":3793:3897   */\n    tag_113:\n        /* \"#utility.yul\":3838:3845   */\n      0x00\n        /* \"#utility.yul\":3867:3891   */\n      tag_196\n        /* \"#utility.yul\":3885:3890   */\n      dup3\n        /* \"#utility.yul\":3867:3891   */\n      tag_100\n      jump\t// in\n    tag_196:\n        /* \"#utility.yul\":3856:3891   */\n      swap1\n      pop\n        /* \"#utility.yul\":3793:3897   */\n      swap2\n      swap1\n      pop\n      jump\t// out\n        /* \"#utility.yul\":3903:4045   */\n    tag_114:\n        /* \"#utility.yul\":4006:4038   */\n      tag_198\n        /* \"#utility.yul\":4032:4037   */\n      dup2\n        /* \"#utility.yul\":4006:4038   */\n      tag_113\n      jump\t// in\n    tag_198:\n        /* \"#utility.yul\":4001:4004   */\n      dup3\n        /* \"#utility.yul\":3994:4039   */\n      mstore\n        /* \"#utility.yul\":3903:4045   */\n      pop\n      pop\n      jump\t// out\n        /* \"#utility.yul\":4051:4826   */\n    tag_33:\n        /* \"#utility.yul\":4286:4290   */\n      0x00\n        /* \"#utility.yul\":4324:4327   */\n      0xa0\n        /* \"#utility.yul\":4313:4322   */\n      dup3\n        /* \"#utility.yul\":4309:4328   */\n      add\n        /* \"#utility.yul\":4301:4328   */\n      swap1\n      pop\n        /* \"#utility.yul\":4374:4383   */\n      dup2\n        /* \"#utility.yul\":4368:4372   */\n      dup2\n        /* \"#utility.yul\":4364:4384   */\n      sub\n        /* \"#utility.yul\":4360:4361   */\n      0x00\n        /* \"#utility.yul\":4349:4358   */\n      dup4\n        /* \"#utility.yul\":4345:4362   */\n      add\n        /* \"#utility.yul\":4338:4385   */\n      mstore\n        /* \"#utility.yul\":4402:4480   */\n      tag_200\n        /* \"#utility.yul\":4475:4479   */\n      dup2\n        /* \"#utility.yul\":4466:4472   */\n      dup9\n        /* \"#utility.yul\":4402:4480   */\n      tag_111\n      jump\t// in\n    tag_200:\n        /* \"#utility.yul\":4394:4480   */\n      swap1\n      pop\n        /* \"#utility.yul\":4490:4562   */\n      tag_201\n        /* \"#utility.yul\":4558:4560   */\n      0x20\n        /* \"#utility.yul\":4547:4556   */\n      dup4\n        /* \"#utility.yul\":4543:4561   */\n      add\n        /* \"#utility.yul\":4534:4540   */\n      dup8\n        /* \"#utility.yul\":4490:4562   */\n      tag_112\n      jump\t// in\n    tag_201:\n        /* \"#utility.yul\":4572:4660   */\n      tag_202\n        /* \"#utility.yul\":4656:4658   */\n      0x40\n        /* \"#utility.yul\":4645:4654   */\n      dup4\n        /* \"#utility.yul\":4641:4659   */\n      add\n        /* \"#utility.yul\":4632:4638   */\n      dup7\n        /* \"#utility.yul\":4572:4660   */\n      tag_114\n      jump\t// in\n    tag_202:\n        /* \"#utility.yul\":4670:4736   */\n      tag_203\n        /* \"#utility.yul\":4732:4734   */\n      0x60\n        /* \"#utility.yul\":4721:4730   */\n      dup4\n        /* \"#utility.yul\":4717:4735   */\n      add\n        /* \"#utility.yul\":4708:4714   */\n      dup6\n        /* \"#utility.yul\":4670:4736   */\n      tag_105\n      jump\t// in\n    tag_203:\n        /* \"#utility.yul\":4746:4819   */\n      tag_204\n        /* \"#utility.yul\":4814:4817   */\n      0x80\n        /* \"#utility.yul\":4803:4812   */\n      dup4\n        /* \"#utility.yul\":4799:4818   */\n      add\n        /* \"#utility.yul\":4790:4796   */\n      dup5\n        /* \"#utility.yul\":4746:4819   */\n      tag_112\n      jump\t// in\n    tag_204:\n        /* \"#utility.yul\":4051:4826   */\n      swap7\n      swap6\n      pop\n      pop\n      pop\n      pop\n      pop\n      pop\n      jump\t// out\n        /* \"#utility.yul\":4832:5054   */\n    tag_38:\n        /* \"#utility.yul\":4925:4929   */\n      0x00\n        /* \"#utility.yul\":4963:4965   */\n      0x20\n        /* \"#utility.yul\":4952:4961   */\n      dup3\n        /* \"#utility.yul\":4948:4966   */\n      add\n        /* \"#utility.yul\":4940:4966   */\n      swap1\n      pop\n        /* \"#utility.yul\":4976:5047   */\n      tag_206\n        /* \"#utility.yul\":5044:5045   */\n      0x00\n        /* \"#utility.yul\":5033:5042   */\n      dup4\n        /* \"#utility.yul\":5029:5046   */\n      add\n        /* \"#utility.yul\":5020:5026   */\n      dup5\n        /* \"#utility.yul\":4976:5047   */\n      tag_112\n      jump\t// in\n    tag_206:\n        /* \"#utility.yul\":4832:5054   */\n      swap3\n      swap2\n      pop\n      pop\n      jump\t// out\n        /* \"#utility.yul\":5060:5177   */\n    tag_115:\n        /* \"#utility.yul\":5169:5170   */\n      0x00\n        /* \"#utility.yul\":5166:5167   */\n      dup1\n        /* \"#utility.yul\":5159:5171   */\n      revert\n        /* \"#utility.yul\":5183:5300   */\n    tag_116:\n        /* \"#utility.yul\":5292:5293   */\n      0x00\n        /* \"#utility.yul\":5289:5290   */\n      dup1\n        /* \"#utility.yul\":5282:5294   */\n      revert\n        /* \"#utility.yul\":5306:5486   */\n    tag_117:\n        /* \"#utility.yul\":5354:5431   */\n      0x4e487b7100000000000000000000000000000000000000000000000000000000\n        /* \"#utility.yul\":5351:5352   */\n      0x00\n        /* \"#utility.yul\":5344:5432   */\n      mstore\n        /* \"#utility.yul\":5451:5455   */\n      0x41\n        /* \"#utility.yul\":5448:5449   */\n      0x04\n        /* \"#utility.yul\":5441:5456   */\n      mstore\n        /* \"#utility.yul\":5475:5479   */\n      0x24\n        /* \"#utility.yul\":5472:5473   */\n      0x00\n        /* \"#utility.yul\":5465:5480   */\n      revert\n        /* \"#utility.yul\":5492:5773   */\n    tag_118:\n        /* \"#utility.yul\":5575:5602   */\n      tag_211\n        /* \"#utility.yul\":5597:5601   */\n      dup3\n        /* \"#utility.yul\":5575:5602   */\n      tag_110\n      jump\t// in\n    tag_211:\n        /* \"#utility.yul\":5567:5573   */\n      dup2\n        /* \"#utility.yul\":5563:5603   */\n      add\n        /* \"#utility.yul\":5705:5711   */\n      dup2\n        /* \"#utility.yul\":5693:5703   */\n      dup2\n        /* \"#utility.yul\":5690:5712   */\n      lt\n        /* \"#utility.yul\":5669:5687   */\n      0xffffffffffffffff\n        /* \"#utility.yul\":5657:5667   */\n      dup3\n        /* \"#utility.yul\":5654:5688   */\n      gt\n        /* \"#utility.yul\":5651:5713   */\n      or\n        /* \"#utility.yul\":5648:5736   */\n      iszero\n      tag_212\n      jumpi\n        /* \"#utility.yul\":5716:5734   */\n      tag_213\n      tag_117\n      jump\t// in\n    tag_213:\n        /* \"#utility.yul\":5648:5736   */\n    tag_212:\n        /* \"#utility.yul\":5756:5766   */\n      dup1\n        /* \"#utility.yul\":5752:5754   */\n      0x40\n        /* \"#utility.yul\":5745:5767   */\n      mstore\n        /* \"#utility.yul\":5535:5773   */\n      pop\n        /* \"#utility.yul\":5492:5773   */\n      pop\n      pop\n      jump\t// out\n        /* \"#utility.yul\":5779:5908   */\n    tag_119:\n        /* \"#utility.yul\":5813:5819   */\n      0x00\n        /* \"#utility.yul\":5840:5860   */\n      tag_215\n      tag_94\n      jump\t// in\n    tag_215:\n        /* \"#utility.yul\":5830:5860   */\n      swap1\n      pop\n        /* \"#utility.yul\":5869:5902   */\n      tag_216\n        /* \"#utility.yul\":5897:5901   */\n      dup3\n        /* \"#utility.yul\":5889:5895   */\n      dup3\n        /* \"#utility.yul\":5869:5902   */\n      tag_118\n      jump\t// in\n    tag_216:\n        /* \"#utility.yul\":5779:5908   */\n      swap2\n      swap1\n      pop\n      jump\t// out\n        /* \"#utility.yul\":5914:6222   */\n    tag_120:\n        /* \"#utility.yul\":5976:5980   */\n      0x00\n        /* \"#utility.yul\":6066:6084   */\n      0xffffffffffffffff\n        /* \"#utility.yul\":6058:6064   */\n      dup3\n        /* \"#utility.yul\":6055:6085   */\n      gt\n        /* \"#utility.yul\":6052:6108   */\n      iszero\n      tag_218\n      jumpi\n        /* \"#utility.yul\":6088:6106   */\n      tag_219\n      tag_117\n      jump\t// in\n    tag_219:\n        /* \"#utility.yul\":6052:6108   */\n    tag_218:\n        /* \"#utility.yul\":6126:6155   */\n      tag_220\n        /* \"#utility.yul\":6148:6154   */\n      dup3\n        /* \"#utility.yul\":6126:6155   */\n      tag_110\n      jump\t// in\n    tag_220:\n        /* \"#utility.yul\":6118:6155   */\n      swap1\n      pop\n        /* \"#utility.yul\":6210:6214   */\n      0x20\n        /* \"#utility.yul\":6204:6208   */\n      dup2\n        /* \"#utility.yul\":6200:6215   */\n      add\n        /* \"#utility.yul\":6192:6215   */\n      swap1\n      pop\n        /* \"#utility.yul\":5914:6222   */\n      swap2\n      swap1\n      pop\n      jump\t// out\n        /* \"#utility.yul\":6228:6374   */\n    tag_121:\n        /* \"#utility.yul\":6325:6331   */\n      dup3\n        /* \"#utility.yul\":6320:6323   */\n      dup2\n        /* \"#utility.yul\":6315:6318   */\n      dup4\n        /* \"#utility.yul\":6302:6332   */\n      calldatacopy\n        /* \"#utility.yul\":6366:6367   */\n      0x00\n        /* \"#utility.yul\":6357:6363   */\n      dup4\n        /* \"#utility.yul\":6352:6355   */\n      dup4\n        /* \"#utility.yul\":6348:6364   */\n      add\n        /* \"#utility.yul\":6341:6368   */\n      mstore\n        /* \"#utility.yul\":6228:6374   */\n      pop\n      pop\n      pop\n      jump\t// out\n        /* \"#utility.yul\":6380:6805   */\n    tag_122:\n        /* \"#utility.yul\":6458:6463   */\n      0x00\n        /* \"#utility.yul\":6483:6549   */\n      tag_223\n        /* \"#utility.yul\":6499:6548   */\n      tag_224\n        /* \"#utility.yul\":6541:6547   */\n      dup5\n        /* \"#utility.yul\":6499:6548   */\n      tag_120\n      jump\t// in\n    tag_224:\n        /* \"#utility.yul\":6483:6549   */\n      tag_119\n      jump\t// in\n    tag_223:\n        /* \"#utility.yul\":6474:6549   */\n      swap1\n      pop\n        /* \"#utility.yul\":6572:6578   */\n      dup3\n        /* \"#utility.yul\":6565:6570   */\n      dup2\n        /* \"#utility.yul\":6558:6579   */\n      mstore\n        /* \"#utility.yul\":6610:6614   */\n      0x20\n        /* \"#utility.yul\":6603:6608   */\n      dup2\n        /* \"#utility.yul\":6599:6615   */\n      add\n        /* \"#utility.yul\":6648:6651   */\n      dup5\n        /* \"#utility.yul\":6639:6645   */\n      dup5\n        /* \"#utility.yul\":6634:6637   */\n      dup5\n        /* \"#utility.yul\":6630:6646   */\n      add\n        /* \"#utility.yul\":6627:6652   */\n      gt\n        /* \"#utility.yul\":6624:6736   */\n      iszero\n      tag_225\n      jumpi\n        /* \"#utility.yul\":6655:6734   */\n      tag_226\n      tag_116\n      jump\t// in\n    tag_226:\n        /* \"#utility.yul\":6624:6736   */\n    tag_225:\n        /* \"#utility.yul\":6745:6799   */\n      tag_227\n        /* \"#utility.yul\":6792:6798   */\n      dup5\n        /* \"#utility.yul\":6787:6790   */\n      dup3\n        /* \"#utility.yul\":6782:6785   */\n      dup6\n        /* \"#utility.yul\":6745:6799   */\n      tag_121\n      jump\t// in\n    tag_227:\n        /* \"#utility.yul\":6464:6805   */\n      pop\n        /* \"#utility.yul\":6380:6805   */\n      swap4\n      swap3\n      pop\n      pop\n      pop\n      jump\t// out\n        /* \"#utility.yul\":6825:7165   */\n    tag_123:\n        /* \"#utility.yul\":6881:6886   */\n      0x00\n        /* \"#utility.yul\":6930:6933   */\n      dup3\n        /* \"#utility.yul\":6923:6927   */\n      0x1f\n        /* \"#utility.yul\":6915:6921   */\n      dup4\n        /* \"#utility.yul\":6911:6928   */\n      add\n        /* \"#utility.yul\":6907:6934   */\n      slt\n        /* \"#utility.yul\":6897:7019   */\n      tag_229\n      jumpi\n        /* \"#utility.yul\":6938:7017   */\n      tag_230\n      tag_115\n      jump\t// in\n    tag_230:\n        /* \"#utility.yul\":6897:7019   */\n    tag_229:\n        /* \"#utility.yul\":7055:7061   */\n      dup2\n        /* \"#utility.yul\":7042:7062   */\n      calldataload\n        /* \"#utility.yul\":7080:7159   */\n      tag_231\n        /* \"#utility.yul\":7155:7158   */\n      dup5\n        /* \"#utility.yul\":7147:7153   */\n      dup3\n        /* \"#utility.yul\":7140:7144   */\n      0x20\n        /* \"#utility.yul\":7132:7138   */\n      dup7\n        /* \"#utility.yul\":7128:7145   */\n      add\n        /* \"#utility.yul\":7080:7159   */\n      tag_122\n      jump\t// in\n    tag_231:\n        /* \"#utility.yul\":7071:7159   */\n      swap2\n      pop\n        /* \"#utility.yul\":6887:7165   */\n      pop\n        /* \"#utility.yul\":6825:7165   */\n      swap3\n      swap2\n      pop\n      pop\n      jump\t// out\n        /* \"#utility.yul\":7171:7309   */\n    tag_124:\n        /* \"#utility.yul\":7252:7284   */\n      tag_233\n        /* \"#utility.yul\":7278:7283   */\n      dup2\n        /* \"#utility.yul\":7252:7284   */\n      tag_113\n      jump\t// in\n    tag_233:\n        /* \"#utility.yul\":7245:7250   */\n      dup2\n        /* \"#utility.yul\":7242:7285   */\n      eq\n        /* \"#utility.yul\":7232:7303   */\n      tag_234\n      jumpi\n        /* \"#utility.yul\":7299:7300   */\n      0x00\n        /* \"#utility.yul\":7296:7297   */\n      dup1\n        /* \"#utility.yul\":7289:7301   */\n      revert\n        /* \"#utility.yul\":7232:7303   */\n    tag_234:\n        /* \"#utility.yul\":7171:7309   */\n      pop\n      jump\t// out\n        /* \"#utility.yul\":7315:7470   */\n    tag_125:\n        /* \"#utility.yul\":7369:7374   */\n      0x00\n        /* \"#utility.yul\":7407:7413   */\n      dup2\n        /* \"#utility.yul\":7394:7414   */\n      calldataload\n        /* \"#utility.yul\":7385:7414   */\n      swap1\n      pop\n        /* \"#utility.yul\":7423:7464   */\n      tag_236\n        /* \"#utility.yul\":7458:7463   */\n      dup2\n        /* \"#utility.yul\":7423:7464   */\n      tag_124\n      jump\t// in\n    tag_236:\n        /* \"#utility.yul\":7315:7470   */\n      swap3\n      swap2\n      pop\n      pop\n      jump\t// out\n        /* \"#utility.yul\":7476:8291   */\n    tag_42:\n        /* \"#utility.yul\":7571:7577   */\n      0x00\n        /* \"#utility.yul\":7579:7585   */\n      dup1\n        /* \"#utility.yul\":7587:7593   */\n      0x00\n        /* \"#utility.yul\":7636:7638   */\n      0x60\n        /* \"#utility.yul\":7624:7633   */\n      dup5\n        /* \"#utility.yul\":7615:7622   */\n      dup7\n        /* \"#utility.yul\":7611:7634   */\n      sub\n        /* \"#utility.yul\":7607:7639   */\n      slt\n        /* \"#utility.yul\":7604:7723   */\n      iszero\n      tag_238\n      jumpi\n        /* \"#utility.yul\":7642:7721   */\n      tag_239\n      tag_95\n      jump\t// in\n    tag_239:\n        /* \"#utility.yul\":7604:7723   */\n    tag_238:\n        /* \"#utility.yul\":7790:7791   */\n      0x00\n        /* \"#utility.yul\":7779:7788   */\n      dup5\n        /* \"#utility.yul\":7775:7792   */\n      add\n        /* \"#utility.yul\":7762:7793   */\n      calldataload\n        /* \"#utility.yul\":7820:7838   */\n      0xffffffffffffffff\n        /* \"#utility.yul\":7812:7818   */\n      dup2\n        /* \"#utility.yul\":7809:7839   */\n      gt\n        /* \"#utility.yul\":7806:7923   */\n      iszero\n      tag_240\n      jumpi\n        /* \"#utility.yul\":7842:7921   */\n      tag_241\n      tag_96\n      jump\t// in\n    tag_241:\n        /* \"#utility.yul\":7806:7923   */\n    tag_240:\n        /* \"#utility.yul\":7947:8010   */\n      tag_242\n        /* \"#utility.yul\":8002:8009   */\n      dup7\n        /* \"#utility.yul\":7993:7999   */\n      dup3\n        /* \"#utility.yul\":7982:7991   */\n      dup8\n        /* \"#utility.yul\":7978:8000   */\n      add\n        /* \"#utility.yul\":7947:8010   */\n      tag_123\n      jump\t// in\n    tag_242:\n        /* \"#utility.yul\":7937:8010   */\n      swap4\n      pop\n        /* \"#utility.yul\":7733:8020   */\n      pop\n        /* \"#utility.yul\":8059:8061   */\n      0x20\n        /* \"#utility.yul\":8085:8138   */\n      tag_243\n        /* \"#utility.yul\":8130:8137   */\n      dup7\n        /* \"#utility.yul\":8121:8127   */\n      dup3\n        /* \"#utility.yul\":8110:8119   */\n      dup8\n        /* \"#utility.yul\":8106:8128   */\n      add\n        /* \"#utility.yul\":8085:8138   */\n      tag_99\n      jump\t// in\n    tag_243:\n        /* \"#utility.yul\":8075:8138   */\n      swap3\n      pop\n        /* \"#utility.yul\":8030:8148   */\n      pop\n        /* \"#utility.yul\":8187:8189   */\n      0x40\n        /* \"#utility.yul\":8213:8274   */\n      tag_244\n        /* \"#utility.yul\":8266:8273   */\n      dup7\n        /* \"#utility.yul\":8257:8263   */\n      dup3\n        /* \"#utility.yul\":8246:8255   */\n      dup8\n        /* \"#utility.yul\":8242:8264   */\n      add\n        /* \"#utility.yul\":8213:8274   */\n      tag_125\n      jump\t// in\n    tag_244:\n        /* \"#utility.yul\":8203:8274   */\n      swap2\n      pop\n        /* \"#utility.yul\":8158:8284   */\n      pop\n        /* \"#utility.yul\":7476:8291   */\n      swap3\n      pop\n      swap3\n      pop\n      swap3\n      jump\t// out\n        /* \"#utility.yul\":8297:8477   */\n    tag_59:\n        /* \"#utility.yul\":8345:8422   */\n      0x4e487b7100000000000000000000000000000000000000000000000000000000\n        /* \"#utility.yul\":8342:8343   */\n      0x00\n        /* \"#utility.yul\":8335:8423   */\n      mstore\n        /* \"#utility.yul\":8442:8446   */\n      0x32\n        /* \"#utility.yul\":8439:8440   */\n      0x04\n        /* \"#utility.yul\":8432:8447   */\n      mstore\n        /* \"#utility.yul\":8466:8470   */\n      0x24\n        /* \"#utility.yul\":8463:8464   */\n      0x00\n        /* \"#utility.yul\":8456:8471   */\n      revert\n        /* \"#utility.yul\":8483:8663   */\n    tag_126:\n        /* \"#utility.yul\":8531:8608   */\n      0x4e487b7100000000000000000000000000000000000000000000000000000000\n        /* \"#utility.yul\":8528:8529   */\n      0x00\n        /* \"#utility.yul\":8521:8609   */\n      mstore\n        /* \"#utility.yul\":8628:8632   */\n      0x12\n        /* \"#utility.yul\":8625:8626   */\n      0x04\n        /* \"#utility.yul\":8618:8633   */\n      mstore\n        /* \"#utility.yul\":8652:8656   */\n      0x24\n        /* \"#utility.yul\":8649:8650   */\n      0x00\n        /* \"#utility.yul\":8642:8657   */\n      revert\n        /* \"#utility.yul\":8669:8849   */\n    tag_127:\n        /* \"#utility.yul\":8717:8794   */\n      0x4e487b7100000000000000000000000000000000000000000000000000000000\n        /* \"#utility.yul\":8714:8715   */\n      0x00\n        /* \"#utility.yul\":8707:8795   */\n      mstore\n        /* \"#utility.yul\":8814:8818   */\n      0x11\n        /* \"#utility.yul\":8811:8812   */\n      0x04\n        /* \"#utility.yul\":8804:8819   */\n      mstore\n        /* \"#utility.yul\":8838:8842   */\n      0x24\n        /* \"#utility.yul\":8835:8836   */\n      0x00\n        /* \"#utility.yul\":8828:8843   */\n      revert\n        /* \"#utility.yul\":8855:9040   */\n    tag_63:\n        /* \"#utility.yul\":8895:8896   */\n      0x00\n        /* \"#utility.yul\":8912:8932   */\n      tag_249\n        /* \"#utility.yul\":8930:8931   */\n      dup3\n        /* \"#utility.yul\":8912:8932   */\n      tag_97\n      jump\t// in\n    tag_249:\n        /* \"#utility.yul\":8907:8932   */\n      swap2\n      pop\n        /* \"#utility.yul\":8946:8966   */\n      tag_250\n        /* \"#utility.yul\":8964:8965   */\n      dup4\n        /* \"#utility.yul\":8946:8966   */\n      tag_97\n      jump\t// in\n    tag_250:\n        /* \"#utility.yul\":8941:8966   */\n      swap3\n      pop\n        /* \"#utility.yul\":8985:8986   */\n      dup3\n        /* \"#utility.yul\":8975:9010   */\n      tag_251\n      jumpi\n        /* \"#utility.yul\":8990:9008   */\n      tag_252\n      tag_126\n      jump\t// in\n    tag_252:\n        /* \"#utility.yul\":8975:9010   */\n    tag_251:\n        /* \"#utility.yul\":9032:9033   */\n      dup3\n        /* \"#utility.yul\":9029:9030   */\n      dup3\n        /* \"#utility.yul\":9025:9034   */\n      div\n        /* \"#utility.yul\":9020:9034   */\n      swap1\n      pop\n        /* \"#utility.yul\":8855:9040   */\n      swap3\n      swap2\n      pop\n      pop\n      jump\t// out\n        /* \"#utility.yul\":9046:9226   */\n    tag_128:\n        /* \"#utility.yul\":9094:9171   */\n      0x4e487b7100000000000000000000000000000000000000000000000000000000\n        /* \"#utility.yul\":9091:9092   */\n      0x00\n        /* \"#utility.yul\":9084:9172   */\n      mstore\n        /* \"#utility.yul\":9191:9195   */\n      0x22\n        /* \"#utility.yul\":9188:9189   */\n      0x04\n        /* \"#utility.yul\":9181:9196   */\n      mstore\n        /* \"#utility.yul\":9215:9219   */\n      0x24\n        /* \"#utility.yul\":9212:9213   */\n      0x00\n        /* \"#utility.yul\":9205:9220   */\n      revert\n        /* \"#utility.yul\":9232:9552   */\n    tag_70:\n        /* \"#utility.yul\":9276:9282   */\n      0x00\n        /* \"#utility.yul\":9313:9314   */\n      0x02\n        /* \"#utility.yul\":9307:9311   */\n      dup3\n        /* \"#utility.yul\":9303:9315   */\n      div\n        /* \"#utility.yul\":9293:9315   */\n      swap1\n      pop\n        /* \"#utility.yul\":9360:9361   */\n      0x01\n        /* \"#utility.yul\":9354:9358   */\n      dup3\n        /* \"#utility.yul\":9350:9362   */\n      and\n        /* \"#utility.yul\":9381:9399   */\n      dup1\n        /* \"#utility.yul\":9371:9452   */\n      tag_255\n      jumpi\n        /* \"#utility.yul\":9437:9441   */\n      0x7f\n        /* \"#utility.yul\":9429:9435   */\n      dup3\n        /* \"#utility.yul\":9425:9442   */\n      and\n        /* \"#utility.yul\":9415:9442   */\n      swap2\n      pop\n        /* \"#utility.yul\":9371:9452   */\n    tag_255:\n        /* \"#utility.yul\":9499:9501   */\n      0x20\n        /* \"#utility.yul\":9491:9497   */\n      dup3\n        /* \"#utility.yul\":9488:9502   */\n      lt\n        /* \"#utility.yul\":9468:9486   */\n      dup2\n        /* \"#utility.yul\":9465:9503   */\n      sub\n        /* \"#utility.yul\":9462:9546   */\n      tag_256\n      jumpi\n        /* \"#utility.yul\":9518:9536   */\n      tag_257\n      tag_128\n      jump\t// in\n    tag_257:\n        /* \"#utility.yul\":9462:9546   */\n    tag_256:\n        /* \"#utility.yul\":9283:9552   */\n      pop\n        /* \"#utility.yul\":9232:9552   */\n      swap2\n      swap1\n      pop\n      jump\t// out\n        /* \"#utility.yul\":9558:9699   */\n    tag_129:\n        /* \"#utility.yul\":9607:9611   */\n      0x00\n        /* \"#utility.yul\":9630:9633   */\n      dup2\n        /* \"#utility.yul\":9622:9633   */\n      swap1\n      pop\n        /* \"#utility.yul\":9653:9656   */\n      dup2\n        /* \"#utility.yul\":9650:9651   */\n      0x00\n        /* \"#utility.yul\":9643:9657   */\n      mstore\n        /* \"#utility.yul\":9687:9691   */\n      0x20\n        /* \"#utility.yul\":9684:9685   */\n      0x00\n        /* \"#utility.yul\":9674:9692   */\n      keccak256\n        /* \"#utility.yul\":9666:9692   */\n      swap1\n      pop\n        /* \"#utility.yul\":9558:9699   */\n      swap2\n      swap1\n      pop\n      jump\t// out\n        /* \"#utility.yul\":9705:9798   */\n    tag_130:\n        /* \"#utility.yul\":9742:9748   */\n      0x00\n        /* \"#utility.yul\":9789:9791   */\n      0x20\n        /* \"#utility.yul\":9784:9786   */\n      0x1f\n        /* \"#utility.yul\":9777:9782   */\n      dup4\n        /* \"#utility.yul\":9773:9787   */\n      add\n        /* \"#utility.yul\":9769:9792   */\n      div\n        /* \"#utility.yul\":9759:9792   */\n      swap1\n      pop\n        /* \"#utility.yul\":9705:9798   */\n      swap2\n      swap1\n      pop\n      jump\t// out\n        /* \"#utility.yul\":9804:9911   */\n    tag_131:\n        /* \"#utility.yul\":9848:9856   */\n      0x00\n        /* \"#utility.yul\":9898:9903   */\n      dup3\n        /* \"#utility.yul\":9892:9896   */\n      dup3\n        /* \"#utility.yul\":9888:9904   */\n      shl\n        /* \"#utility.yul\":9867:9904   */\n      swap1\n      pop\n        /* \"#utility.yul\":9804:9911   */\n      swap3\n      swap2\n      pop\n      pop\n      jump\t// out\n        /* \"#utility.yul\":9917:10310   */\n    tag_132:\n        /* \"#utility.yul\":9986:9992   */\n      0x00\n        /* \"#utility.yul\":10036:10037   */\n      0x08\n        /* \"#utility.yul\":10024:10034   */\n      dup4\n        /* \"#utility.yul\":10020:10038   */\n      mul\n        /* \"#utility.yul\":10059:10156   */\n      tag_262\n        /* \"#utility.yul\":10089:10155   */\n      0xffffffffffffffffffffffffffffffffffffffffffffffffffffffffffffffff\n        /* \"#utility.yul\":10078:10087   */\n      dup3\n        /* \"#utility.yul\":10059:10156   */\n      tag_131\n      jump\t// in\n    tag_262:\n        /* \"#utility.yul\":10177:10216   */\n      tag_263\n        /* \"#utility.yul\":10207:10215   */\n      dup7\n        /* \"#utility.yul\":10196:10205   */\n      dup4\n        /* \"#utility.yul\":10177:10216   */\n      tag_131\n      jump\t// in\n    tag_263:\n        /* \"#utility.yul\":10165:10216   */\n      swap6\n      pop\n        /* \"#utility.yul\":10249:10253   */\n      dup1\n        /* \"#utility.yul\":10245:10254   */\n      not\n        /* \"#utility.yul\":10238:10243   */\n      dup5\n        /* \"#utility.yul\":10234:10255   */\n      and\n        /* \"#utility.yul\":10225:10255   */\n      swap4\n      pop\n        /* \"#utility.yul\":10298:10302   */\n      dup1\n        /* \"#utility.yul\":10288:10296   */\n      dup7\n        /* \"#utility.yul\":10284:10303   */\n      and\n        /* \"#utility.yul\":10277:10282   */\n      dup5\n        /* \"#utility.yul\":10274:10304   */\n      or\n        /* \"#utility.yul\":10264:10304   */\n      swap3\n      pop\n        /* \"#utility.yul\":9993:10310   */\n      pop\n      pop\n        /* \"#utility.yul\":9917:10310   */\n      swap4\n      swap3\n      pop\n      pop\n      pop\n      jump\t// out\n        /* \"#utility.yul\":10316:10376   */\n    tag_133:\n        /* \"#utility.yul\":10344:10347   */\n      0x00\n        /* \"#utility.yul\":10365:10370   */\n      dup2\n        /* \"#utility.yul\":10358:10370   */\n      swap1\n      pop\n        /* \"#utility.yul\":10316:10376   */\n      swap2\n      swap1\n      pop\n      jump\t// out\n        /* \"#utility.yul\":10382:10524   */\n    tag_134:\n        /* \"#utility.yul\":10432:10441   */\n      0x00\n        /* \"#utility.yul\":10465:10518   */\n      tag_266\n        /* \"#utility.yul\":10483:10517   */\n      tag_267\n        /* \"#utility.yul\":10492:10516   */\n      tag_268\n        /* \"#utility.yul\":10510:10515   */\n      dup5\n        /* \"#utility.yul\":10492:10516   */\n      tag_97\n      jump\t// in\n    tag_268:\n        /* \"#utility.yul\":10483:10517   */\n      tag_133\n      jump\t// in\n    tag_267:\n        /* \"#utility.yul\":10465:10518   */\n      tag_97\n      jump\t// in\n    tag_266:\n        /* \"#utility.yul\":10452:10518   */\n      swap1\n      pop\n        /* \"#utility.yul\":10382:10524   */\n      swap2\n      swap1\n      pop\n      jump\t// out\n        /* \"#utility.yul\":10530:10605   */\n    tag_135:\n        /* \"#utility.yul\":10573:10576   */\n      0x00\n        /* \"#utility.yul\":10594:10599   */\n      dup2\n        /* \"#utility.yul\":10587:10599   */\n      swap1\n      pop\n        /* \"#utility.yul\":10530:10605   */\n      swap2\n      swap1\n      pop\n      jump\t// out\n        /* \"#utility.yul\":10611:10880   */\n    tag_136:\n        /* \"#utility.yul\":10721:10760   */\n      tag_271\n        /* \"#utility.yul\":10752:10759   */\n      dup4\n        /* \"#utility.yul\":10721:10760   */\n      tag_134\n      jump\t// in\n    tag_271:\n        /* \"#utility.yul\":10782:10873   */\n      tag_272\n        /* \"#utility.yul\":10831:10872   */\n      tag_273\n        /* \"#utility.yul\":10855:10871   */\n      dup3\n        /* \"#utility.yul\":10831:10872   */\n      tag_135\n      jump\t// in\n    tag_273:\n        /* \"#utility.yul\":10823:10829   */\n      dup5\n        /* \"#utility.yul\":10816:10820   */\n      dup5\n        /* \"#utility.yul\":10810:10821   */\n      sload\n        /* \"#utility.yul\":10782:10873   */\n      tag_132\n      jump\t// in\n    tag_272:\n        /* \"#utility.yul\":10776:10780   */\n      dup3\n        /* \"#utility.yul\":10769:10874   */\n      sstore\n        /* \"#utility.yul\":10687:10880   */\n      pop\n        /* \"#utility.yul\":10611:10880   */\n      pop\n      pop\n      pop\n      jump\t// out\n        /* \"#utility.yul\":10886:10959   */\n    tag_137:\n        /* \"#utility.yul\":10931:10934   */\n      0x00\n        /* \"#utility.yul\":10886:10959   */\n      swap1\n      jump\t// out\n        /* \"#utility.yul\":10965:11154   */\n    tag_138:\n        /* \"#utility.yul\":11042:11074   */\n      tag_276\n      tag_137\n      jump\t// in\n    tag_276:\n        /* \"#utility.yul\":11083:11148   */\n      tag_277\n        /* \"#utility.yul\":11141:11147   */\n      dup2\n        /* \"#utility.yul\":11133:11139   */\n      dup5\n        /* \"#utility.yul\":11127:11131   */\n      dup5\n        /* \"#utility.yul\":11083:11148   */\n      tag_136\n      jump\t// in\n    tag_277:\n        /* \"#utility.yul\":11018:11154   */\n      pop\n        /* \"#utility.yul\":10965:11154   */\n      pop\n      pop\n      jump\t// out\n        /* \"#utility.yul\":11160:11346   */\n    tag_139:\n        /* \"#utility.yul\":11220:11340   */\n    tag_279:\n        /* \"#utility.yul\":11237:11240   */\n      dup2\n        /* \"#utility.yul\":11230:11235   */\n      dup2\n        /* \"#utility.yul\":11227:11241   */\n      lt\n        /* \"#utility.yul\":11220:11340   */\n      iszero\n      tag_281\n      jumpi\n        /* \"#utility.yul\":11291:11330   */\n      tag_282\n        /* \"#utility.yul\":11328:11329   */\n      0x00\n        /* \"#utility.yul\":11321:11326   */\n      dup3\n        /* \"#utility.yul\":11291:11330   */\n      tag_138\n      jump\t// in\n    tag_282:\n        /* \"#utility.yul\":11264:11265   */\n      0x01\n        /* \"#utility.yul\":11257:11262   */\n      dup2\n        /* \"#utility.yul\":11253:11266   */\n      add\n        /* \"#utility.yul\":11244:11266   */\n      swap1\n      pop\n        /* \"#utility.yul\":11220:11340   */\n      jump(tag_279)\n    tag_281:\n        /* \"#utility.yul\":11160:11346   */\n      pop\n      pop\n      jump\t// out\n        /* \"#utility.yul\":11352:11895   */\n    tag_140:\n        /* \"#utility.yul\":11453:11455   */\n      0x1f\n        /* \"#utility.yul\":11448:11451   */\n      dup3\n        /* \"#utility.yul\":11445:11456   */\n      gt\n        /* \"#utility.yul\":11442:11888   */\n      iszero\n      tag_284\n      jumpi\n        /* \"#utility.yul\":11487:11525   */\n      tag_285\n        /* \"#utility.yul\":11519:11524   */\n      dup2\n        /* \"#utility.yul\":11487:11525   */\n      tag_129\n      jump\t// in\n    tag_285:\n        /* \"#utility.yul\":11571:11600   */\n      tag_286\n        /* \"#utility.yul\":11589:11599   */\n      dup5\n        /* \"#utility.yul\":11571:11600   */\n      tag_130\n      jump\t// in\n    tag_286:\n        /* \"#utility.yul\":11561:11569   */\n      dup2\n        /* \"#utility.yul\":11557:11601   */\n      add\n        /* \"#utility.yul\":11754:11756   */\n      0x20\n        /* \"#utility.yul\":11742:11752   */\n      dup6\n        /* \"#utility.yul\":11739:11757   */\n      lt\n        /* \"#utility.yul\":11736:11785   */\n      iszero\n      tag_287\n      jumpi\n        /* \"#utility.yul\":11775:11783   */\n      dup2\n        /* \"#utility.yul\":11760:11783   */\n      swap1\n      pop\n        /* \"#utility.yul\":11736:11785   */\n    tag_287:\n        /* \"#utility.yul\":11798:11878   */\n      tag_288\n        /* \"#utility.yul\":11854:11876   */\n      tag_289\n        /* \"#utility.yul\":11872:11875   */\n      dup6\n        /* \"#utility.yul\":11854:11876   */\n      tag_130\n      jump\t// in\n    tag_289:\n        /* \"#utility.yul\":11844:11852   */\n      dup4\n        /* \"#utility.yul\":11840:11877   */\n      add\n        /* \"#utility.yul\":11827:11838   */\n      dup3\n        /* \"#utility.yul\":11798:11878   */\n      tag_139\n      jump\t// in\n    tag_288:\n        /* \"#utility.yul\":11457:11888   */\n      pop\n      pop\n        /* \"#utility.yul\":11442:11888   */\n    tag_284:\n        /* \"#utility.yul\":11352:11895   */\n      pop\n      pop\n      pop\n      jump\t// out\n        /* \"#utility.yul\":11901:12018   */\n    tag_141:\n        /* \"#utility.yul\":11955:11963   */\n      0x00\n        /* \"#utility.yul\":12005:12010   */\n      dup3\n        /* \"#utility.yul\":11999:12003   */\n      dup3\n        /* \"#utility.yul\":11995:12011   */\n      shr\n        /* \"#utility.yul\":11974:12011   */\n      swap1\n      pop\n        /* \"#utility.yul\":11901:12018   */\n      swap3\n      swap2\n      pop\n      pop\n      jump\t// out\n        /* \"#utility.yul\":12024:12193   */\n    tag_142:\n        /* \"#utility.yul\":12068:12074   */\n      0x00\n        /* \"#utility.yul\":12101:12152   */\n      tag_292\n        /* \"#utility.yul\":12149:12150   */\n      0x00\n        /* \"#utility.yul\":12145:12151   */\n      not\n        /* \"#utility.yul\":12137:12142   */\n      dup5\n        /* \"#utility.yul\":12134:12135   */\n      0x08\n        /* \"#utility.yul\":12130:12143   */\n      mul\n        /* \"#utility.yul\":12101:12152   */\n      tag_141\n      jump\t// in\n    tag_292:\n        /* \"#utility.yul\":12097:12153   */\n      not\n        /* \"#utility.yul\":12182:12186   */\n      dup1\n        /* \"#utility.yul\":12176:12180   */\n      dup4\n        /* \"#utility.yul\":12172:12187   */\n      and\n        /* \"#utility.yul\":12162:12187   */\n      swap2\n      pop\n        /* \"#utility.yul\":12075:12193   */\n      pop\n        /* \"#utility.yul\":12024:12193   */\n      swap3\n      swap2\n      pop\n      pop\n      jump\t// out\n        /* \"#utility.yul\":12198:12493   */\n    tag_143:\n        /* \"#utility.yul\":12274:12278   */\n      0x00\n        /* \"#utility.yul\":12420:12449   */\n      tag_294\n        /* \"#utility.yul\":12445:12448   */\n      dup4\n        /* \"#utility.yul\":12439:12443   */\n      dup4\n        /* \"#utility.yul\":12420:12449   */\n      tag_142\n      jump\t// in\n    tag_294:\n        /* \"#utility.yul\":12412:12449   */\n      swap2\n      pop\n        /* \"#utility.yul\":12482:12485   */\n      dup3\n        /* \"#utility.yul\":12479:12480   */\n      0x02\n        /* \"#utility.yul\":12475:12486   */\n      mul\n        /* \"#utility.yul\":12469:12473   */\n      dup3\n        /* \"#utility.yul\":12466:12487   */\n      or\n        /* \"#utility.yul\":12458:12487   */\n      swap1\n      pop\n        /* \"#utility.yul\":12198:12493   */\n      swap3\n      swap2\n      pop\n      pop\n      jump\t// out\n        /* \"#utility.yul\":12498:13893   */\n    tag_80:\n        /* \"#utility.yul\":12615:12652   */\n      tag_296\n        /* \"#utility.yul\":12648:12651   */\n      dup3\n        /* \"#utility.yul\":12615:12652   */\n      tag_107\n      jump\t// in\n    tag_296:\n        /* \"#utility.yul\":12717:12735   */\n      0xffffffffffffffff\n        /* \"#utility.yul\":12709:12715   */\n      dup2\n        /* \"#utility.yul\":12706:12736   */\n      gt\n        /* \"#utility.yul\":12703:12759   */\n      iszero\n      tag_297\n      jumpi\n        /* \"#utility.yul\":12739:12757   */\n      tag_298\n      tag_117\n      jump\t// in\n    tag_298:\n        /* \"#utility.yul\":12703:12759   */\n    tag_297:\n        /* \"#utility.yul\":12783:12821   */\n      tag_299\n        /* \"#utility.yul\":12815:12819   */\n      dup3\n        /* \"#utility.yul\":12809:12820   */\n      sload\n        /* \"#utility.yul\":12783:12821   */\n      tag_70\n      jump\t// in\n    tag_299:\n        /* \"#utility.yul\":12868:12935   */\n      tag_300\n        /* \"#utility.yul\":12928:12934   */\n      dup3\n        /* \"#utility.yul\":12920:12926   */\n      dup3\n        /* \"#utility.yul\":12914:12918   */\n      dup6\n        /* \"#utility.yul\":12868:12935   */\n      tag_140\n      jump\t// in\n    tag_300:\n        /* \"#utility.yul\":12962:12963   */\n      0x00\n        /* \"#utility.yul\":12986:12990   */\n      0x20\n        /* \"#utility.yul\":12973:12990   */\n      swap1\n      pop\n        /* \"#utility.yul\":13018:13020   */\n      0x1f\n        /* \"#utility.yul\":13010:13016   */\n      dup4\n        /* \"#utility.yul\":13007:13021   */\n      gt\n        /* \"#utility.yul\":13035:13036   */\n      0x01\n        /* \"#utility.yul\":13030:13648   */\n      dup2\n      eq\n      tag_302\n      jumpi\n        /* \"#utility.yul\":13692:13693   */\n      0x00\n        /* \"#utility.yul\":13709:13715   */\n      dup5\n        /* \"#utility.yul\":13706:13783   */\n      iszero\n      tag_303\n      jumpi\n        /* \"#utility.yul\":13758:13767   */\n      dup3\n        /* \"#utility.yul\":13753:13756   */\n      dup8\n        /* \"#utility.yul\":13749:13768   */\n      add\n        /* \"#utility.yul\":13743:13769   */\n      mload\n        /* \"#utility.yul\":13734:13769   */\n      swap1\n      pop\n        /* \"#utility.yul\":13706:13783   */\n    tag_303:\n        /* \"#utility.yul\":13809:13876   */\n      tag_304\n        /* \"#utility.yul\":13869:13875   */\n      dup6\n        /* \"#utility.yul\":13862:13867   */\n      dup3\n        /* \"#utility.yul\":13809:13876   */\n      tag_143\n      jump\t// in\n    tag_304:\n        /* \"#utility.yul\":13803:13807   */\n      dup7\n        /* \"#utility.yul\":13796:13877   */\n      sstore\n        /* \"#utility.yul\":13665:13887   */\n      pop\n        /* \"#utility.yul\":13000:13887   */\n      jump(tag_301)\n        /* \"#utility.yul\":13030:13648   */\n    tag_302:\n        /* \"#utility.yul\":13082:13086   */\n      0x1f\n        /* \"#utility.yul\":13078:13087   */\n      not\n        /* \"#utility.yul\":13070:13076   */\n      dup5\n        /* \"#utility.yul\":13066:13088   */\n      and\n        /* \"#utility.yul\":13116:13153   */\n      tag_305\n        /* \"#utility.yul\":13148:13152   */\n      dup7\n        /* \"#utility.yul\":13116:13153   */\n      tag_129\n      jump\t// in\n    tag_305:\n        /* \"#utility.yul\":13175:13176   */\n      0x00\n        /* \"#utility.yul\":13189:13397   */\n    tag_306:\n        /* \"#utility.yul\":13203:13210   */\n      dup3\n        /* \"#utility.yul\":13200:13201   */\n      dup2\n        /* \"#utility.yul\":13197:13211   */\n      lt\n        /* \"#utility.yul\":13189:13397   */\n      iszero\n      tag_308\n      jumpi\n        /* \"#utility.yul\":13282:13291   */\n      dup5\n        /* \"#utility.yul\":13277:13280   */\n      dup10\n        /* \"#utility.yul\":13273:13292   */\n      add\n        /* \"#utility.yul\":13267:13293   */\n      mload\n        /* \"#utility.yul\":13259:13265   */\n      dup3\n        /* \"#utility.yul\":13252:13294   */\n      sstore\n        /* \"#utility.yul\":13333:13334   */\n      0x01\n        /* \"#utility.yul\":13325:13331   */\n      dup3\n        /* \"#utility.yul\":13321:13335   */\n      add\n        /* \"#utility.yul\":13311:13335   */\n      swap2\n      pop\n        /* \"#utility.yul\":13380:13382   */\n      0x20\n        /* \"#utility.yul\":13369:13378   */\n      dup6\n        /* \"#utility.yul\":13365:13383   */\n      add\n        /* \"#utility.yul\":13352:13383   */\n      swap5\n      pop\n        /* \"#utility.yul\":13226:13230   */\n      0x20\n        /* \"#utility.yul\":13223:13224   */\n      dup2\n        /* \"#utility.yul\":13219:13231   */\n      add\n        /* \"#utility.yul\":13214:13231   */\n      swap1\n      pop\n        /* \"#utility.yul\":13189:13397   */\n      jump(tag_306)\n    tag_308:\n        /* \"#utility.yul\":13425:13431   */\n      dup7\n        /* \"#utility.yul\":13416:13423   */\n      dup4\n        /* \"#utility.yul\":13413:13432   */\n      lt\n        /* \"#utility.yul\":13410:13589   */\n      iszero\n      tag_309\n      jumpi\n        /* \"#utility.yul\":13483:13492   */\n      dup5\n        /* \"#utility.yul\":13478:13481   */\n      dup10\n        /* \"#utility.yul\":13474:13493   */\n      add\n        /* \"#utility.yul\":13468:13494   */\n      mload\n        /* \"#utility.yul\":13526:13574   */\n      tag_310\n        /* \"#utility.yul\":13568:13572   */\n      0x1f\n        /* \"#utility.yul\":13560:13566   */\n      dup10\n        /* \"#utility.yul\":13556:13573   */\n      and\n        /* \"#utility.yul\":13545:13554   */\n      dup3\n        /* \"#utility.yul\":13526:13574   */\n      tag_142\n      jump\t// in\n    tag_310:\n        /* \"#utility.yul\":13518:13524   */\n      dup4\n        /* \"#utility.yul\":13511:13575   */\n      sstore\n        /* \"#utility.yul\":13433:13589   */\n      pop\n        /* \"#utility.yul\":13410:13589   */\n    tag_309:\n        /* \"#utility.yul\":13635:13636   */\n      0x01\n        /* \"#utility.yul\":13631:13632   */\n      0x02\n        /* \"#utility.yul\":13623:13629   */\n      dup9\n        /* \"#utility.yul\":13619:13633   */\n      mul\n        /* \"#utility.yul\":13615:13637   */\n      add\n        /* \"#utility.yul\":13609:13613   */\n      dup9\n        /* \"#utility.yul\":13602:13638   */\n      sstore\n        /* \"#utility.yul\":13037:13648   */\n      pop\n      pop\n      pop\n        /* \"#utility.yul\":13000:13887   */\n    tag_301:\n      pop\n        /* \"#utility.yul\":12590:13893   */\n      pop\n      pop\n      pop\n        /* \"#utility.yul\":12498:13893   */\n      pop\n      pop\n      jump\t// out\n        /* \"#utility.yul\":13899:14126   */\n    tag_144:\n        /* \"#utility.yul\":14039:14073   */\n      0x506c6561736520656e74657220746865206d696e696d756d20616d6f756e7420\n        /* \"#utility.yul\":14035:14036   */\n      0x00\n        /* \"#utility.yul\":14027:14033   */\n      dup3\n        /* \"#utility.yul\":14023:14037   */\n      add\n        /* \"#utility.yul\":14016:14074   */\n      mstore\n        /* \"#utility.yul\":14108:14118   */\n      0x6f66206574686572000000000000000000000000000000000000000000000000\n        /* \"#utility.yul\":14103:14105   */\n      0x20\n        /* \"#utility.yul\":14095:14101   */\n      dup3\n        /* \"#utility.yul\":14091:14106   */\n      add\n        /* \"#utility.yul\":14084:14119   */\n      mstore\n        /* \"#utility.yul\":13899:14126   */\n      pop\n      jump\t// out\n        /* \"#utility.yul\":14132:14498   */\n    tag_145:\n        /* \"#utility.yul\":14274:14277   */\n      0x00\n        /* \"#utility.yul\":14295:14362   */\n      tag_313\n        /* \"#utility.yul\":14359:14361   */\n      0x28\n        /* \"#utility.yul\":14354:14357   */\n      dup4\n        /* \"#utility.yul\":14295:14362   */\n      tag_108\n      jump\t// in\n    tag_313:\n        /* \"#utility.yul\":14288:14362   */\n      swap2\n      pop\n        /* \"#utility.yul\":14371:14464   */\n      tag_314\n        /* \"#utility.yul\":14460:14463   */\n      dup3\n        /* \"#utility.yul\":14371:14464   */\n      tag_144\n      jump\t// in\n    tag_314:\n        /* \"#utility.yul\":14489:14491   */\n      0x40\n        /* \"#utility.yul\":14484:14487   */\n      dup3\n        /* \"#utility.yul\":14480:14492   */\n      add\n        /* \"#utility.yul\":14473:14492   */\n      swap1\n      pop\n        /* \"#utility.yul\":14132:14498   */\n      swap2\n      swap1\n      pop\n      jump\t// out\n        /* \"#utility.yul\":14504:14923   */\n    tag_84:\n        /* \"#utility.yul\":14670:14674   */\n      0x00\n        /* \"#utility.yul\":14708:14710   */\n      0x20\n        /* \"#utility.yul\":14697:14706   */\n      dup3\n        /* \"#utility.yul\":14693:14711   */\n      add\n        /* \"#utility.yul\":14685:14711   */\n      swap1\n      pop\n        /* \"#utility.yul\":14757:14766   */\n      dup2\n        /* \"#utility.yul\":14751:14755   */\n      dup2\n        /* \"#utility.yul\":14747:14767   */\n      sub\n        /* \"#utility.yul\":14743:14744   */\n      0x00\n        /* \"#utility.yul\":14732:14741   */\n      dup4\n        /* \"#utility.yul\":14728:14745   */\n      add\n        /* \"#utility.yul\":14721:14768   */\n      mstore\n        /* \"#utility.yul\":14785:14916   */\n      tag_316\n        /* \"#utility.yul\":14911:14915   */\n      dup2\n        /* \"#utility.yul\":14785:14916   */\n      tag_145\n      jump\t// in\n    tag_316:\n        /* \"#utility.yul\":14777:14916   */\n      swap1\n      pop\n        /* \"#utility.yul\":14504:14923   */\n      swap2\n      swap1\n      pop\n      jump\t// out\n        /* \"#utility.yul\":14929:15162   */\n    tag_86:\n        /* \"#utility.yul\":14968:14971   */\n      0x00\n        /* \"#utility.yul\":14991:15015   */\n      tag_318\n        /* \"#utility.yul\":15009:15014   */\n      dup3\n        /* \"#utility.yul\":14991:15015   */\n      tag_97\n      jump\t// in\n    tag_318:\n        /* \"#utility.yul\":14982:15015   */\n      swap2\n      pop\n        /* \"#utility.yul\":15037:15103   */\n      0xffffffffffffffffffffffffffffffffffffffffffffffffffffffffffffffff\n        /* \"#utility.yul\":15030:15035   */\n      dup3\n        /* \"#utility.yul\":15027:15104   */\n      sub\n        /* \"#utility.yul\":15024:15127   */\n      tag_319\n      jumpi\n        /* \"#utility.yul\":15107:15125   */\n      tag_320\n      tag_127\n      jump\t// in\n    tag_320:\n        /* \"#utility.yul\":15024:15127   */\n    tag_319:\n        /* \"#utility.yul\":15154:15155   */\n      0x01\n        /* \"#utility.yul\":15147:15152   */\n      dup3\n        /* \"#utility.yul\":15143:15156   */\n      add\n        /* \"#utility.yul\":15136:15156   */\n      swap1\n      pop\n        /* \"#utility.yul\":14929:15162   */\n      swap2\n      swap1\n      pop\n      jump\t// out\n\n    auxdata: 0xa264697066735822122036a9206544be8783aefc39b4b252be5ac2c778970cf34b3152f6bbd8ad3259f464736f6c63430008110033\n}\n",
        "bytecode": {
            "linkReferences": {},
            "object": "60806040523480156200001157600080fd5b50604051620012343803806200123483398181016040528101906200003791906200012b565b806000806101000a81548173ffffffffffffffffffffffffffffffffffffffff021916908373ffffffffffffffffffffffffffffffffffffffff16021790555081600181905550505062000172565b600080fd5b6000819050919050565b620000a0816200008b565b8114620000ac57600080fd5b50565b600081519050620000c08162000095565b92915050565b600073ffffffffffffffffffffffffffffffffffffffff82169050919050565b6000620000f382620000c6565b9050919050565b6200010581620000e6565b81146200011157600080fd5b50565b6000815190506200012581620000fa565b92915050565b6000806040838503121562000145576200014462000086565b5b60006200015585828601620000af565b9250506020620001688582860162000114565b9150509250929050565b6110b280620001826000396000f3fe6080604052600436106100865760003560e01c806382fde0931161005957806382fde093146101505780638a9cfd551461017b578063937e09b1146101a4578063d7bb99ba146101cf578063d7d1bbdb146101d957610086565b8063034410061461008b5780630a144391146100a7578063481c6a75146100e457806381d12c581461010f575b600080fd5b6100a560048036038101906100a091906107e9565b610202565b005b3480156100b357600080fd5b506100ce60048036038101906100c99190610874565b61034a565b6040516100db91906108bc565b60405180910390f35b3480156100f057600080fd5b506100f961036a565b60405161010691906108e6565b60405180910390f35b34801561011b57600080fd5b50610136600480360381019061013191906107e9565b61038e565b6040516101479594939291906109c1565b60405180910390f35b34801561015c57600080fd5b50610165610489565b6040516101729190610a1b565b60405180910390f35b34801561018757600080fd5b506101a2600480360381019061019d9190610b97565b61048f565b005b3480156101b057600080fd5b506101b9610596565b6040516101c69190610a1b565b60405180910390f35b6101d761059c565b005b3480156101e557600080fd5b5061020060048036038101906101fb91906107e9565b610652565b005b60008054906101000a900473ffffffffffffffffffffffffffffffffffffffff1673ffffffffffffffffffffffffffffffffffffffff163373ffffffffffffffffffffffffffffffffffffffff161461025a57600080fd5b6000600382815481106102705761026f610c06565b5b906000526020600020906005020190508060020160149054906101000a900460ff161561029c57600080fd5b60026004546102ab9190610c93565b8160030154116102ba57600080fd5b8060020160009054906101000a900473ffffffffffffffffffffffffffffffffffffffff1673ffffffffffffffffffffffffffffffffffffffff166108fc82600101549081150290604051600060405180830381858888f19350505050158015610328573d6000803e3d6000fd5b5060018160020160146101000a81548160ff0219169083151502179055505050565b60026020528060005260406000206000915054906101000a900460ff1681565b60008054906101000a900473ffffffffffffffffffffffffffffffffffffffff1681565b6003818154811061039e57600080fd5b90600052602060002090600502016000915090508060000180546103c190610cf3565b80601f01602080910402602001604051908101604052809291908181526020018280546103ed90610cf3565b801561043a5780601f1061040f5761010080835404028352916020019161043a565b820191906000526020600020905b81548152906001019060200180831161041d57829003601f168201915b5050505050908060010154908060020160009054906101000a900473ffffffffffffffffffffffffffffffffffffffff16908060020160149054906101000a900460ff16908060030154905085565b60045481565b60008054906101000a900473ffffffffffffffffffffffffffffffffffffffff1673ffffffffffffffffffffffffffffffffffffffff163373ffffffffffffffffffffffffffffffffffffffff16146104e757600080fd5b6000600360018160018154018082558091505003906000526020600020906005020190508381600001908161051c9190610ed0565b50828160010181905550818160020160006101000a81548173ffffffffffffffffffffffffffffffffffffffff021916908373ffffffffffffffffffffffffffffffffffffffff16021790555060008160020160146101000a81548160ff0219169083151502179055506000816003018190555050505050565b60015481565b60015434116105e0576040517f08c379a00000000000000000000000000000000000000000000000000000000081526004016105d790611014565b60405180910390fd5b6001600260003373ffffffffffffffffffffffffffffffffffffffff1673ffffffffffffffffffffffffffffffffffffffff16815260200190815260200160002060006101000a81548160ff0219169083151502179055506004600081548092919061064b90611034565b9190505550565b60006003828154811061066857610667610c06565b5b90600052602060002090600502019050600260003373ffffffffffffffffffffffffffffffffffffffff1673ffffffffffffffffffffffffffffffffffffffff16815260200190815260200160002060009054906101000a900460ff166106ce57600080fd5b8060040160003373ffffffffffffffffffffffffffffffffffffffff1673ffffffffffffffffffffffffffffffffffffffff16815260200190815260200160002060009054906101000a900460ff161561072757600080fd5b60018160040160003373ffffffffffffffffffffffffffffffffffffffff1673ffffffffffffffffffffffffffffffffffffffff16815260200190815260200160002060006101000a81548160ff02191690831515021790555080600301600081548092919061079690611034565b91905055505050565b6000604051905090565b600080fd5b600080fd5b6000819050919050565b6107c6816107b3565b81146107d157600080fd5b50565b6000813590506107e3816107bd565b92915050565b6000602082840312156107ff576107fe6107a9565b5b600061080d848285016107d4565b91505092915050565b600073ffffffffffffffffffffffffffffffffffffffff82169050919050565b600061084182610816565b9050919050565b61085181610836565b811461085c57600080fd5b50565b60008135905061086e81610848565b92915050565b60006020828403121561088a576108896107a9565b5b60006108988482850161085f565b91505092915050565b60008115159050919050565b6108b6816108a1565b82525050565b60006020820190506108d160008301846108ad565b92915050565b6108e081610836565b82525050565b60006020820190506108fb60008301846108d7565b92915050565b600081519050919050565b600082825260208201905092915050565b60005b8381101561093b578082015181840152602081019050610920565b60008484015250505050565b6000601f19601f8301169050919050565b600061096382610901565b61096d818561090c565b935061097d81856020860161091d565b61098681610947565b840191505092915050565b61099a816107b3565b82525050565b60006109ab82610816565b9050919050565b6109bb816109a0565b82525050565b600060a08201905081810360008301526109db8188610958565b90506109ea6020830187610991565b6109f760408301866109b2565b610a0460608301856108ad565b610a116080830184610991565b9695505050505050565b6000602082019050610a306000830184610991565b92915050565b600080fd5b600080fd5b7f4e487b7100000000000000000000000000000000000000000000000000000000600052604160045260246000fd5b610a7882610947565b810181811067ffffffffffffffff82111715610a9757610a96610a40565b5b80604052505050565b6000610aaa61079f565b9050610ab68282610a6f565b919050565b600067ffffffffffffffff821115610ad657610ad5610a40565b5b610adf82610947565b9050602081019050919050565b82818337600083830152505050565b6000610b0e610b0984610abb565b610aa0565b905082815260208101848484011115610b2a57610b29610a3b565b5b610b35848285610aec565b509392505050565b600082601f830112610b5257610b51610a36565b5b8135610b62848260208601610afb565b91505092915050565b610b74816109a0565b8114610b7f57600080fd5b50565b600081359050610b9181610b6b565b92915050565b600080600060608486031215610bb057610baf6107a9565b5b600084013567ffffffffffffffff811115610bce57610bcd6107ae565b5b610bda86828701610b3d565b9350506020610beb868287016107d4565b9250506040610bfc86828701610b82565b9150509250925092565b7f4e487b7100000000000000000000000000000000000000000000000000000000600052603260045260246000fd5b7f4e487b7100000000000000000000000000000000000000000000000000000000600052601260045260246000fd5b7f4e487b7100000000000000000000000000000000000000000000000000000000600052601160045260246000fd5b6000610c9e826107b3565b9150610ca9836107b3565b925082610cb957610cb8610c35565b5b828204905092915050565b7f4e487b7100000000000000000000000000000000000000000000000000000000600052602260045260246000fd5b60006002820490506001821680610d0b57607f821691505b602082108103610d1e57610d1d610cc4565b5b50919050565b60008190508160005260206000209050919050565b60006020601f8301049050919050565b600082821b905092915050565b600060088302610d867fffffffffffffffffffffffffffffffffffffffffffffffffffffffffffffffff82610d49565b610d908683610d49565b95508019841693508086168417925050509392505050565b6000819050919050565b6000610dcd610dc8610dc3846107b3565b610da8565b6107b3565b9050919050565b6000819050919050565b610de783610db2565b610dfb610df382610dd4565b848454610d56565b825550505050565b600090565b610e10610e03565b610e1b818484610dde565b505050565b5b81811015610e3f57610e34600082610e08565b600181019050610e21565b5050565b601f821115610e8457610e5581610d24565b610e5e84610d39565b81016020851015610e6d578190505b610e81610e7985610d39565b830182610e20565b50505b505050565b600082821c905092915050565b6000610ea760001984600802610e89565b1980831691505092915050565b6000610ec08383610e96565b9150826002028217905092915050565b610ed982610901565b67ffffffffffffffff811115610ef257610ef1610a40565b5b610efc8254610cf3565b610f07828285610e43565b600060209050601f831160018114610f3a5760008415610f28578287015190505b610f328582610eb4565b865550610f9a565b601f198416610f4886610d24565b60005b82811015610f7057848901518255600182019150602085019450602081019050610f4b565b86831015610f8d5784890151610f89601f891682610e96565b8355505b6001600288020188555050505b505050505050565b7f506c6561736520656e74657220746865206d696e696d756d20616d6f756e742060008201527f6f66206574686572000000000000000000000000000000000000000000000000602082015250565b6000610ffe60288361090c565b915061100982610fa2565b604082019050919050565b6000602082019050818103600083015261102d81610ff1565b9050919050565b600061103f826107b3565b91507fffffffffffffffffffffffffffffffffffffffffffffffffffffffffffffffff820361107157611070610c64565b5b60018201905091905056fea264697066735822122036a9206544be8783aefc39b4b252be5ac2c778970cf34b3152f6bbd8ad3259f464736f6c63430008110033",
            "opcodes": "PUSH1 0x80 PUSH1 0x40 MSTORE CALLVALUE DUP1 ISZERO PUSH3 0x11 JUMPI PUSH1 0x0 DUP1 REVERT JUMPDEST POP PUSH1 0x40 MLOAD PUSH3 0x1234 CODESIZE SUB DUP1 PUSH3 0x1234 DUP4 CODECOPY DUP2 DUP2 ADD PUSH1 0x40 MSTORE DUP2 ADD SWAP1 PUSH3 0x37 SWAP2 SWAP1 PUSH3 0x12B JUMP JUMPDEST DUP1 PUSH1 0x0 DUP1 PUSH2 0x100 EXP DUP2 SLOAD DUP2 PUSH20 0xFFFFFFFFFFFFFFFFFFFFFFFFFFFFFFFFFFFFFFFF MUL NOT AND SWAP1 DUP4 PUSH20 0xFFFFFFFFFFFFFFFFFFFFFFFFFFFFFFFFFFFFFFFF AND MUL OR SWAP1 SSTORE POP DUP2 PUSH1 0x1 DUP2 SWAP1 SSTORE POP POP POP PUSH3 0x172 JUMP JUMPDEST PUSH1 0x0 DUP1 REVERT JUMPDEST PUSH1 0x0 DUP2 SWAP1 POP SWAP2 SWAP1 POP JUMP JUMPDEST PUSH3 0xA0 DUP2 PUSH3 0x8B JUMP JUMPDEST DUP2 EQ PUSH3 0xAC JUMPI PUSH1 0x0 DUP1 REVERT JUMPDEST POP JUMP JUMPDEST PUSH1 0x0 DUP2 MLOAD SWAP1 POP PUSH3 0xC0 DUP2 PUSH3 0x95 JUMP JUMPDEST SWAP3 SWAP2 POP POP JUMP JUMPDEST PUSH1 0x0 PUSH20 0xFFFFFFFFFFFFFFFFFFFFFFFFFFFFFFFFFFFFFFFF DUP3 AND SWAP1 POP SWAP2 SWAP1 POP JUMP JUMPDEST PUSH1 0x0 PUSH3 0xF3 DUP3 PUSH3 0xC6 JUMP JUMPDEST SWAP1 POP SWAP2 SWAP1 POP JUMP JUMPDEST PUSH3 0x105 DUP2 PUSH3 0xE6 JUMP JUMPDEST DUP2 EQ PUSH3 0x111 JUMPI PUSH1 0x0 DUP1 REVERT JUMPDEST POP JUMP JUMPDEST PUSH1 0x0 DUP2 MLOAD SWAP1 POP PUSH3 0x125 DUP2 PUSH3 0xFA JUMP JUMPDEST SWAP3 SWAP2 POP POP JUMP JUMPDEST PUSH1 0x0 DUP1 PUSH1 0x40 DUP4 DUP6 SUB SLT ISZERO PUSH3 0x145 JUMPI PUSH3 0x144 PUSH3 0x86 JUMP JUMPDEST JUMPDEST PUSH1 0x0 PUSH3 0x155 DUP6 DUP3 DUP7 ADD PUSH3 0xAF JUMP JUMPDEST SWAP3 POP POP PUSH1 0x20 PUSH3 0x168 DUP6 DUP3 DUP7 ADD PUSH3 0x114 JUMP JUMPDEST SWAP2 POP POP SWAP3 POP SWAP3 SWAP1 POP JUMP JUMPDEST PUSH2 0x10B2 DUP1 PUSH3 0x182 PUSH1 0x0 CODECOPY PUSH1 0x0 RETURN INVALID PUSH1 0x80 PUSH1 0x40 MSTORE PUSH1 0x4 CALLDATASIZE LT PUSH2 0x86 JUMPI PUSH1 0x0 CALLDATALOAD PUSH1 0xE0 SHR DUP1 PUSH4 0x82FDE093 GT PUSH2 0x59 JUMPI DUP1 PUSH4 0x82FDE093 EQ PUSH2 0x150 JUMPI DUP1 PUSH4 0x8A9CFD55 EQ PUSH2 0x17B JUMPI DUP1 PUSH4 0x937E09B1 EQ PUSH2 0x1A4 JUMPI DUP1 PUSH4 0xD7BB99BA EQ PUSH2 0x1CF JUMPI DUP1 PUSH4 0xD7D1BBDB EQ PUSH2 0x1D9 JUMPI PUSH2 0x86 JUMP JUMPDEST DUP1 PUSH4 0x3441006 EQ PUSH2 0x8B JUMPI DUP1 PUSH4 0xA144391 EQ PUSH2 0xA7 JUMPI DUP1 PUSH4 0x481C6A75 EQ PUSH2 0xE4 JUMPI DUP1 PUSH4 0x81D12C58 EQ PUSH2 0x10F JUMPI JUMPDEST PUSH1 0x0 DUP1 REVERT JUMPDEST PUSH2 0xA5 PUSH1 0x4 DUP1 CALLDATASIZE SUB DUP2 ADD SWAP1 PUSH2 0xA0 SWAP2 SWAP1 PUSH2 0x7E9 JUMP JUMPDEST PUSH2 0x202 JUMP JUMPDEST STOP JUMPDEST CALLVALUE DUP1 ISZERO PUSH2 0xB3 JUMPI PUSH1 0x0 DUP1 REVERT JUMPDEST POP PUSH2 0xCE PUSH1 0x4 DUP1 CALLDATASIZE SUB DUP2 ADD SWAP1 PUSH2 0xC9 SWAP2 SWAP1 PUSH2 0x874 JUMP JUMPDEST PUSH2 0x34A JUMP JUMPDEST PUSH1 0x40 MLOAD PUSH2 0xDB SWAP2 SWAP1 PUSH2 0x8BC JUMP JUMPDEST PUSH1 0x40 MLOAD DUP1 SWAP2 SUB SWAP1 RETURN JUMPDEST CALLVALUE DUP1 ISZERO PUSH2 0xF0 JUMPI PUSH1 0x0 DUP1 REVERT JUMPDEST POP PUSH2 0xF9 PUSH2 0x36A JUMP JUMPDEST PUSH1 0x40 MLOAD PUSH2 0x106 SWAP2 SWAP1 PUSH2 0x8E6 JUMP JUMPDEST PUSH1 0x40 MLOAD DUP1 SWAP2 SUB SWAP1 RETURN JUMPDEST CALLVALUE DUP1 ISZERO PUSH2 0x11B JUMPI PUSH1 0x0 DUP1 REVERT JUMPDEST POP PUSH2 0x136 PUSH1 0x4 DUP1 CALLDATASIZE SUB DUP2 ADD SWAP1 PUSH2 0x131 SWAP2 SWAP1 PUSH2 0x7E9 JUMP JUMPDEST PUSH2 0x38E JUMP JUMPDEST PUSH1 0x40 MLOAD PUSH2 0x147 SWAP6 SWAP5 SWAP4 SWAP3 SWAP2 SWAP1 PUSH2 0x9C1 JUMP JUMPDEST PUSH1 0x40 MLOAD DUP1 SWAP2 SUB SWAP1 RETURN JUMPDEST CALLVALUE DUP1 ISZERO PUSH2 0x15C JUMPI PUSH1 0x0 DUP1 REVERT JUMPDEST POP PUSH2 0x165 PUSH2 0x489 JUMP JUMPDEST PUSH1 0x40 MLOAD PUSH2 0x172 SWAP2 SWAP1 PUSH2 0xA1B JUMP JUMPDEST PUSH1 0x40 MLOAD DUP1 SWAP2 SUB SWAP1 RETURN JUMPDEST CALLVALUE DUP1 ISZERO PUSH2 0x187 JUMPI PUSH1 0x0 DUP1 REVERT JUMPDEST POP PUSH2 0x1A2 PUSH1 0x4 DUP1 CALLDATASIZE SUB DUP2 ADD SWAP1 PUSH2 0x19D SWAP2 SWAP1 PUSH2 0xB97 JUMP JUMPDEST PUSH2 0x48F JUMP JUMPDEST STOP JUMPDEST CALLVALUE DUP1 ISZERO PUSH2 0x1B0 JUMPI PUSH1 0x0 DUP1 REVERT JUMPDEST POP PUSH2 0x1B9 PUSH2 0x596 JUMP JUMPDEST PUSH1 0x40 MLOAD PUSH2 0x1C6 SWAP2 SWAP1 PUSH2 0xA1B JUMP JUMPDEST PUSH1 0x40 MLOAD DUP1 SWAP2 SUB SWAP1 RETURN JUMPDEST PUSH2 0x1D7 PUSH2 0x59C JUMP JUMPDEST STOP JUMPDEST CALLVALUE DUP1 ISZERO PUSH2 0x1E5 JUMPI PUSH1 0x0 DUP1 REVERT JUMPDEST POP PUSH2 0x200 PUSH1 0x4 DUP1 CALLDATASIZE SUB DUP2 ADD SWAP1 PUSH2 0x1FB SWAP2 SWAP1 PUSH2 0x7E9 JUMP JUMPDEST PUSH2 0x652 JUMP JUMPDEST STOP JUMPDEST PUSH1 0x0 DUP1 SLOAD SWAP1 PUSH2 0x100 EXP SWAP1 DIV PUSH20 0xFFFFFFFFFFFFFFFFFFFFFFFFFFFFFFFFFFFFFFFF AND PUSH20 0xFFFFFFFFFFFFFFFFFFFFFFFFFFFFFFFFFFFFFFFF AND CALLER PUSH20 0xFFFFFFFFFFFFFFFFFFFFFFFFFFFFFFFFFFFFFFFF AND EQ PUSH2 0x25A JUMPI PUSH1 0x0 DUP1 REVERT JUMPDEST PUSH1 0x0 PUSH1 0x3 DUP3 DUP2 SLOAD DUP2 LT PUSH2 0x270 JUMPI PUSH2 0x26F PUSH2 0xC06 JUMP JUMPDEST JUMPDEST SWAP1 PUSH1 0x0 MSTORE PUSH1 0x20 PUSH1 0x0 KECCAK256 SWAP1 PUSH1 0x5 MUL ADD SWAP1 POP DUP1 PUSH1 0x2 ADD PUSH1 0x14 SWAP1 SLOAD SWAP1 PUSH2 0x100 EXP SWAP1 DIV PUSH1 0xFF AND ISZERO PUSH2 0x29C JUMPI PUSH1 0x0 DUP1 REVERT JUMPDEST PUSH1 0x2 PUSH1 0x4 SLOAD PUSH2 0x2AB SWAP2 SWAP1 PUSH2 0xC93 JUMP JUMPDEST DUP2 PUSH1 0x3 ADD SLOAD GT PUSH2 0x2BA JUMPI PUSH1 0x0 DUP1 REVERT JUMPDEST DUP1 PUSH1 0x2 ADD PUSH1 0x0 SWAP1 SLOAD SWAP1 PUSH2 0x100 EXP SWAP1 DIV PUSH20 0xFFFFFFFFFFFFFFFFFFFFFFFFFFFFFFFFFFFFFFFF AND PUSH20 0xFFFFFFFFFFFFFFFFFFFFFFFFFFFFFFFFFFFFFFFF AND PUSH2 0x8FC DUP3 PUSH1 0x1 ADD SLOAD SWAP1 DUP2 ISZERO MUL SWAP1 PUSH1 0x40 MLOAD PUSH1 0x0 PUSH1 0x40 MLOAD DUP1 DUP4 SUB DUP2 DUP6 DUP9 DUP9 CALL SWAP4 POP POP POP POP ISZERO DUP1 ISZERO PUSH2 0x328 JUMPI RETURNDATASIZE PUSH1 0x0 DUP1 RETURNDATACOPY RETURNDATASIZE PUSH1 0x0 REVERT JUMPDEST POP PUSH1 0x1 DUP2 PUSH1 0x2 ADD PUSH1 0x14 PUSH2 0x100 EXP DUP2 SLOAD DUP2 PUSH1 0xFF MUL NOT AND SWAP1 DUP4 ISZERO ISZERO MUL OR SWAP1 SSTORE POP POP POP JUMP JUMPDEST PUSH1 0x2 PUSH1 0x20 MSTORE DUP1 PUSH1 0x0 MSTORE PUSH1 0x40 PUSH1 0x0 KECCAK256 PUSH1 0x0 SWAP2 POP SLOAD SWAP1 PUSH2 0x100 EXP SWAP1 DIV PUSH1 0xFF AND DUP2 JUMP JUMPDEST PUSH1 0x0 DUP1 SLOAD SWAP1 PUSH2 0x100 EXP SWAP1 DIV PUSH20 0xFFFFFFFFFFFFFFFFFFFFFFFFFFFFFFFFFFFFFFFF AND DUP2 JUMP JUMPDEST PUSH1 0x3 DUP2 DUP2 SLOAD DUP2 LT PUSH2 0x39E JUMPI PUSH1 0x0 DUP1 REVERT JUMPDEST SWAP1 PUSH1 0x0 MSTORE PUSH1 0x20 PUSH1 0x0 KECCAK256 SWAP1 PUSH1 0x5 MUL ADD PUSH1 0x0 SWAP2 POP SWAP1 POP DUP1 PUSH1 0x0 ADD DUP1 SLOAD PUSH2 0x3C1 SWAP1 PUSH2 0xCF3 JUMP JUMPDEST DUP1 PUSH1 0x1F ADD PUSH1 0x20 DUP1 SWAP2 DIV MUL PUSH1 0x20 ADD PUSH1 0x40 MLOAD SWAP1 DUP2 ADD PUSH1 0x40 MSTORE DUP1 SWAP3 SWAP2 SWAP1 DUP2 DUP2 MSTORE PUSH1 0x20 ADD DUP3 DUP1 SLOAD PUSH2 0x3ED SWAP1 PUSH2 0xCF3 JUMP JUMPDEST DUP1 ISZERO PUSH2 0x43A JUMPI DUP1 PUSH1 0x1F LT PUSH2 0x40F JUMPI PUSH2 0x100 DUP1 DUP4 SLOAD DIV MUL DUP4 MSTORE SWAP2 PUSH1 0x20 ADD SWAP2 PUSH2 0x43A JUMP JUMPDEST DUP3 ADD SWAP2 SWAP1 PUSH1 0x0 MSTORE PUSH1 0x20 PUSH1 0x0 KECCAK256 SWAP1 JUMPDEST DUP2 SLOAD DUP2 MSTORE SWAP1 PUSH1 0x1 ADD SWAP1 PUSH1 0x20 ADD DUP1 DUP4 GT PUSH2 0x41D JUMPI DUP3 SWAP1 SUB PUSH1 0x1F AND DUP3 ADD SWAP2 JUMPDEST POP POP POP POP POP SWAP1 DUP1 PUSH1 0x1 ADD SLOAD SWAP1 DUP1 PUSH1 0x2 ADD PUSH1 0x0 SWAP1 SLOAD SWAP1 PUSH2 0x100 EXP SWAP1 DIV PUSH20 0xFFFFFFFFFFFFFFFFFFFFFFFFFFFFFFFFFFFFFFFF AND SWAP1 DUP1 PUSH1 0x2 ADD PUSH1 0x14 SWAP1 SLOAD SWAP1 PUSH2 0x100 EXP SWAP1 DIV PUSH1 0xFF AND SWAP1 DUP1 PUSH1 0x3 ADD SLOAD SWAP1 POP DUP6 JUMP JUMPDEST PUSH1 0x4 SLOAD DUP2 JUMP JUMPDEST PUSH1 0x0 DUP1 SLOAD SWAP1 PUSH2 0x100 EXP SWAP1 DIV PUSH20 0xFFFFFFFFFFFFFFFFFFFFFFFFFFFFFFFFFFFFFFFF AND PUSH20 0xFFFFFFFFFFFFFFFFFFFFFFFFFFFFFFFFFFFFFFFF AND CALLER PUSH20 0xFFFFFFFFFFFFFFFFFFFFFFFFFFFFFFFFFFFFFFFF AND EQ PUSH2 0x4E7 JUMPI PUSH1 0x0 DUP1 REVERT JUMPDEST PUSH1 0x0 PUSH1 0x3 PUSH1 0x1 DUP2 PUSH1 0x1 DUP2 SLOAD ADD DUP1 DUP3 SSTORE DUP1 SWAP2 POP POP SUB SWAP1 PUSH1 0x0 MSTORE PUSH1 0x20 PUSH1 0x0 KECCAK256 SWAP1 PUSH1 0x5 MUL ADD SWAP1 POP DUP4 DUP2 PUSH1 0x0 ADD SWAP1 DUP2 PUSH2 0x51C SWAP2 SWAP1 PUSH2 0xED0 JUMP JUMPDEST POP DUP3 DUP2 PUSH1 0x1 ADD DUP2 SWAP1 SSTORE POP DUP2 DUP2 PUSH1 0x2 ADD PUSH1 0x0 PUSH2 0x100 EXP DUP2 SLOAD DUP2 PUSH20 0xFFFFFFFFFFFFFFFFFFFFFFFFFFFFFFFFFFFFFFFF MUL NOT AND SWAP1 DUP4 PUSH20 0xFFFFFFFFFFFFFFFFFFFFFFFFFFFFFFFFFFFFFFFF AND MUL OR SWAP1 SSTORE POP PUSH1 0x0 DUP2 PUSH1 0x2 ADD PUSH1 0x14 PUSH2 0x100 EXP DUP2 SLOAD DUP2 PUSH1 0xFF MUL NOT AND SWAP1 DUP4 ISZERO ISZERO MUL OR SWAP1 SSTORE POP PUSH1 0x0 DUP2 PUSH1 0x3 ADD DUP2 SWAP1 SSTORE POP POP POP POP POP JUMP JUMPDEST PUSH1 0x1 SLOAD DUP2 JUMP JUMPDEST PUSH1 0x1 SLOAD CALLVALUE GT PUSH2 0x5E0 JUMPI PUSH1 0x40 MLOAD PUSH32 0x8C379A000000000000000000000000000000000000000000000000000000000 DUP2 MSTORE PUSH1 0x4 ADD PUSH2 0x5D7 SWAP1 PUSH2 0x1014 JUMP JUMPDEST PUSH1 0x40 MLOAD DUP1 SWAP2 SUB SWAP1 REVERT JUMPDEST PUSH1 0x1 PUSH1 0x2 PUSH1 0x0 CALLER PUSH20 0xFFFFFFFFFFFFFFFFFFFFFFFFFFFFFFFFFFFFFFFF AND PUSH20 0xFFFFFFFFFFFFFFFFFFFFFFFFFFFFFFFFFFFFFFFF AND DUP2 MSTORE PUSH1 0x20 ADD SWAP1 DUP2 MSTORE PUSH1 0x20 ADD PUSH1 0x0 KECCAK256 PUSH1 0x0 PUSH2 0x100 EXP DUP2 SLOAD DUP2 PUSH1 0xFF MUL NOT AND SWAP1 DUP4 ISZERO ISZERO MUL OR SWAP1 SSTORE POP PUSH1 0x4 PUSH1 0x0 DUP2 SLOAD DUP1 SWAP3 SWAP2 SWAP1 PUSH2 0x64B SWAP1 PUSH2 0x1034 JUMP JUMPDEST SWAP2 SWAP1 POP SSTORE POP JUMP JUMPDEST PUSH1 0x0 PUSH1 0x3 DUP3 DUP2 SLOAD DUP2 LT PUSH2 0x668 JUMPI PUSH2 0x667 PUSH2 0xC06 JUMP JUMPDEST JUMPDEST SWAP1 PUSH1 0x0 MSTORE PUSH1 0x20 PUSH1 0x0 KECCAK256 SWAP1 PUSH1 0x5 MUL ADD SWAP1 POP PUSH1 0x2 PUSH1 0x0 CALLER PUSH20 0xFFFFFFFFFFFFFFFFFFFFFFFFFFFFFFFFFFFFFFFF AND PUSH20 0xFFFFFFFFFFFFFFFFFFFFFFFFFFFFFFFFFFFFFFFF AND DUP2 MSTORE PUSH1 0x20 ADD SWAP1 DUP2 MSTORE PUSH1 0x20 ADD PUSH1 0x0 KECCAK256 PUSH1 0x0 SWAP1 SLOAD SWAP1 PUSH2 0x100 EXP SWAP1 DIV PUSH1 0xFF AND PUSH2 0x6CE JUMPI PUSH1 0x0 DUP1 REVERT JUMPDEST DUP1 PUSH1 0x4 ADD PUSH1 0x0 CALLER PUSH20 0xFFFFFFFFFFFFFFFFFFFFFFFFFFFFFFFFFFFFFFFF AND PUSH20 0xFFFFFFFFFFFFFFFFFFFFFFFFFFFFFFFFFFFFFFFF AND DUP2 MSTORE PUSH1 0x20 ADD SWAP1 DUP2 MSTORE PUSH1 0x20 ADD PUSH1 0x0 KECCAK256 PUSH1 0x0 SWAP1 SLOAD SWAP1 PUSH2 0x100 EXP SWAP1 DIV PUSH1 0xFF AND ISZERO PUSH2 0x727 JUMPI PUSH1 0x0 DUP1 REVERT JUMPDEST PUSH1 0x1 DUP2 PUSH1 0x4 ADD PUSH1 0x0 CALLER PUSH20 0xFFFFFFFFFFFFFFFFFFFFFFFFFFFFFFFFFFFFFFFF AND PUSH20 0xFFFFFFFFFFFFFFFFFFFFFFFFFFFFFFFFFFFFFFFF AND DUP2 MSTORE PUSH1 0x20 ADD SWAP1 DUP2 MSTORE PUSH1 0x20 ADD PUSH1 0x0 KECCAK256 PUSH1 0x0 PUSH2 0x100 EXP DUP2 SLOAD DUP2 PUSH1 0xFF MUL NOT AND SWAP1 DUP4 ISZERO ISZERO MUL OR SWAP1 SSTORE POP DUP1 PUSH1 0x3 ADD PUSH1 0x0 DUP2 SLOAD DUP1 SWAP3 SWAP2 SWAP1 PUSH2 0x796 SWAP1 PUSH2 0x1034 JUMP JUMPDEST SWAP2 SWAP1 POP SSTORE POP POP POP JUMP JUMPDEST PUSH1 0x0 PUSH1 0x40 MLOAD SWAP1 POP SWAP1 JUMP JUMPDEST PUSH1 0x0 DUP1 REVERT JUMPDEST PUSH1 0x0 DUP1 REVERT JUMPDEST PUSH1 0x0 DUP2 SWAP1 POP SWAP2 SWAP1 POP JUMP JUMPDEST PUSH2 0x7C6 DUP2 PUSH2 0x7B3 JUMP JUMPDEST DUP2 EQ PUSH2 0x7D1 JUMPI PUSH1 0x0 DUP1 REVERT JUMPDEST POP JUMP JUMPDEST PUSH1 0x0 DUP2 CALLDATALOAD SWAP1 POP PUSH2 0x7E3 DUP2 PUSH2 0x7BD JUMP JUMPDEST SWAP3 SWAP2 POP POP JUMP JUMPDEST PUSH1 0x0 PUSH1 0x20 DUP3 DUP5 SUB SLT ISZERO PUSH2 0x7FF JUMPI PUSH2 0x7FE PUSH2 0x7A9 JUMP JUMPDEST JUMPDEST PUSH1 0x0 PUSH2 0x80D DUP5 DUP3 DUP6 ADD PUSH2 0x7D4 JUMP JUMPDEST SWAP2 POP POP SWAP3 SWAP2 POP POP JUMP JUMPDEST PUSH1 0x0 PUSH20 0xFFFFFFFFFFFFFFFFFFFFFFFFFFFFFFFFFFFFFFFF DUP3 AND SWAP1 POP SWAP2 SWAP1 POP JUMP JUMPDEST PUSH1 0x0 PUSH2 0x841 DUP3 PUSH2 0x816 JUMP JUMPDEST SWAP1 POP SWAP2 SWAP1 POP JUMP JUMPDEST PUSH2 0x851 DUP2 PUSH2 0x836 JUMP JUMPDEST DUP2 EQ PUSH2 0x85C JUMPI PUSH1 0x0 DUP1 REVERT JUMPDEST POP JUMP JUMPDEST PUSH1 0x0 DUP2 CALLDATALOAD SWAP1 POP PUSH2 0x86E DUP2 PUSH2 0x848 JUMP JUMPDEST SWAP3 SWAP2 POP POP JUMP JUMPDEST PUSH1 0x0 PUSH1 0x20 DUP3 DUP5 SUB SLT ISZERO PUSH2 0x88A JUMPI PUSH2 0x889 PUSH2 0x7A9 JUMP JUMPDEST JUMPDEST PUSH1 0x0 PUSH2 0x898 DUP5 DUP3 DUP6 ADD PUSH2 0x85F JUMP JUMPDEST SWAP2 POP POP SWAP3 SWAP2 POP POP JUMP JUMPDEST PUSH1 0x0 DUP2 ISZERO ISZERO SWAP1 POP SWAP2 SWAP1 POP JUMP JUMPDEST PUSH2 0x8B6 DUP2 PUSH2 0x8A1 JUMP JUMPDEST DUP3 MSTORE POP POP JUMP JUMPDEST PUSH1 0x0 PUSH1 0x20 DUP3 ADD SWAP1 POP PUSH2 0x8D1 PUSH1 0x0 DUP4 ADD DUP5 PUSH2 0x8AD JUMP JUMPDEST SWAP3 SWAP2 POP POP JUMP JUMPDEST PUSH2 0x8E0 DUP2 PUSH2 0x836 JUMP JUMPDEST DUP3 MSTORE POP POP JUMP JUMPDEST PUSH1 0x0 PUSH1 0x20 DUP3 ADD SWAP1 POP PUSH2 0x8FB PUSH1 0x0 DUP4 ADD DUP5 PUSH2 0x8D7 JUMP JUMPDEST SWAP3 SWAP2 POP POP JUMP JUMPDEST PUSH1 0x0 DUP2 MLOAD SWAP1 POP SWAP2 SWAP1 POP JUMP JUMPDEST PUSH1 0x0 DUP3 DUP3 MSTORE PUSH1 0x20 DUP3 ADD SWAP1 POP SWAP3 SWAP2 POP POP JUMP JUMPDEST PUSH1 0x0 JUMPDEST DUP4 DUP2 LT ISZERO PUSH2 0x93B JUMPI DUP1 DUP3 ADD MLOAD DUP2 DUP5 ADD MSTORE PUSH1 0x20 DUP2 ADD SWAP1 POP PUSH2 0x920 JUMP JUMPDEST PUSH1 0x0 DUP5 DUP5 ADD MSTORE POP POP POP POP JUMP JUMPDEST PUSH1 0x0 PUSH1 0x1F NOT PUSH1 0x1F DUP4 ADD AND SWAP1 POP SWAP2 SWAP1 POP JUMP JUMPDEST PUSH1 0x0 PUSH2 0x963 DUP3 PUSH2 0x901 JUMP JUMPDEST PUSH2 0x96D DUP2 DUP6 PUSH2 0x90C JUMP JUMPDEST SWAP4 POP PUSH2 0x97D DUP2 DUP6 PUSH1 0x20 DUP7 ADD PUSH2 0x91D JUMP JUMPDEST PUSH2 0x986 DUP2 PUSH2 0x947 JUMP JUMPDEST DUP5 ADD SWAP2 POP POP SWAP3 SWAP2 POP POP JUMP JUMPDEST PUSH2 0x99A DUP2 PUSH2 0x7B3 JUMP JUMPDEST DUP3 MSTORE POP POP JUMP JUMPDEST PUSH1 0x0 PUSH2 0x9AB DUP3 PUSH2 0x816 JUMP JUMPDEST SWAP1 POP SWAP2 SWAP1 POP JUMP JUMPDEST PUSH2 0x9BB DUP2 PUSH2 0x9A0 JUMP JUMPDEST DUP3 MSTORE POP POP JUMP JUMPDEST PUSH1 0x0 PUSH1 0xA0 DUP3 ADD SWAP1 POP DUP2 DUP2 SUB PUSH1 0x0 DUP4 ADD MSTORE PUSH2 0x9DB DUP2 DUP9 PUSH2 0x958 JUMP JUMPDEST SWAP1 POP PUSH2 0x9EA PUSH1 0x20 DUP4 ADD DUP8 PUSH2 0x991 JUMP JUMPDEST PUSH2 0x9F7 PUSH1 0x40 DUP4 ADD DUP7 PUSH2 0x9B2 JUMP JUMPDEST PUSH2 0xA04 PUSH1 0x60 DUP4 ADD DUP6 PUSH2 0x8AD JUMP JUMPDEST PUSH2 0xA11 PUSH1 0x80 DUP4 ADD DUP5 PUSH2 0x991 JUMP JUMPDEST SWAP7 SWAP6 POP POP POP POP POP POP JUMP JUMPDEST PUSH1 0x0 PUSH1 0x20 DUP3 ADD SWAP1 POP PUSH2 0xA30 PUSH1 0x0 DUP4 ADD DUP5 PUSH2 0x991 JUMP JUMPDEST SWAP3 SWAP2 POP POP JUMP JUMPDEST PUSH1 0x0 DUP1 REVERT JUMPDEST PUSH1 0x0 DUP1 REVERT JUMPDEST PUSH32 0x4E487B7100000000000000000000000000000000000000000000000000000000 PUSH1 0x0 MSTORE PUSH1 0x41 PUSH1 0x4 MSTORE PUSH1 0x24 PUSH1 0x0 REVERT JUMPDEST PUSH2 0xA78 DUP3 PUSH2 0x947 JUMP JUMPDEST DUP2 ADD DUP2 DUP2 LT PUSH8 0xFFFFFFFFFFFFFFFF DUP3 GT OR ISZERO PUSH2 0xA97 JUMPI PUSH2 0xA96 PUSH2 0xA40 JUMP JUMPDEST JUMPDEST DUP1 PUSH1 0x40 MSTORE POP POP POP JUMP JUMPDEST PUSH1 0x0 PUSH2 0xAAA PUSH2 0x79F JUMP JUMPDEST SWAP1 POP PUSH2 0xAB6 DUP3 DUP3 PUSH2 0xA6F JUMP JUMPDEST SWAP2 SWAP1 POP JUMP JUMPDEST PUSH1 0x0 PUSH8 0xFFFFFFFFFFFFFFFF DUP3 GT ISZERO PUSH2 0xAD6 JUMPI PUSH2 0xAD5 PUSH2 0xA40 JUMP JUMPDEST JUMPDEST PUSH2 0xADF DUP3 PUSH2 0x947 JUMP JUMPDEST SWAP1 POP PUSH1 0x20 DUP2 ADD SWAP1 POP SWAP2 SWAP1 POP JUMP JUMPDEST DUP3 DUP2 DUP4 CALLDATACOPY PUSH1 0x0 DUP4 DUP4 ADD MSTORE POP POP POP JUMP JUMPDEST PUSH1 0x0 PUSH2 0xB0E PUSH2 0xB09 DUP5 PUSH2 0xABB JUMP JUMPDEST PUSH2 0xAA0 JUMP JUMPDEST SWAP1 POP DUP3 DUP2 MSTORE PUSH1 0x20 DUP2 ADD DUP5 DUP5 DUP5 ADD GT ISZERO PUSH2 0xB2A JUMPI PUSH2 0xB29 PUSH2 0xA3B JUMP JUMPDEST JUMPDEST PUSH2 0xB35 DUP5 DUP3 DUP6 PUSH2 0xAEC JUMP JUMPDEST POP SWAP4 SWAP3 POP POP POP JUMP JUMPDEST PUSH1 0x0 DUP3 PUSH1 0x1F DUP4 ADD SLT PUSH2 0xB52 JUMPI PUSH2 0xB51 PUSH2 0xA36 JUMP JUMPDEST JUMPDEST DUP2 CALLDATALOAD PUSH2 0xB62 DUP5 DUP3 PUSH1 0x20 DUP7 ADD PUSH2 0xAFB JUMP JUMPDEST SWAP2 POP POP SWAP3 SWAP2 POP POP JUMP JUMPDEST PUSH2 0xB74 DUP2 PUSH2 0x9A0 JUMP JUMPDEST DUP2 EQ PUSH2 0xB7F JUMPI PUSH1 0x0 DUP1 REVERT JUMPDEST POP JUMP JUMPDEST PUSH1 0x0 DUP2 CALLDATALOAD SWAP1 POP PUSH2 0xB91 DUP2 PUSH2 0xB6B JUMP JUMPDEST SWAP3 SWAP2 POP POP JUMP JUMPDEST PUSH1 0x0 DUP1 PUSH1 0x0 PUSH1 0x60 DUP5 DUP7 SUB SLT ISZERO PUSH2 0xBB0 JUMPI PUSH2 0xBAF PUSH2 0x7A9 JUMP JUMPDEST JUMPDEST PUSH1 0x0 DUP5 ADD CALLDATALOAD PUSH8 0xFFFFFFFFFFFFFFFF DUP2 GT ISZERO PUSH2 0xBCE JUMPI PUSH2 0xBCD PUSH2 0x7AE JUMP JUMPDEST JUMPDEST PUSH2 0xBDA DUP7 DUP3 DUP8 ADD PUSH2 0xB3D JUMP JUMPDEST SWAP4 POP POP PUSH1 0x20 PUSH2 0xBEB DUP7 DUP3 DUP8 ADD PUSH2 0x7D4 JUMP JUMPDEST SWAP3 POP POP PUSH1 0x40 PUSH2 0xBFC DUP7 DUP3 DUP8 ADD PUSH2 0xB82 JUMP JUMPDEST SWAP2 POP POP SWAP3 POP SWAP3 POP SWAP3 JUMP JUMPDEST PUSH32 0x4E487B7100000000000000000000000000000000000000000000000000000000 PUSH1 0x0 MSTORE PUSH1 0x32 PUSH1 0x4 MSTORE PUSH1 0x24 PUSH1 0x0 REVERT JUMPDEST PUSH32 0x4E487B7100000000000000000000000000000000000000000000000000000000 PUSH1 0x0 MSTORE PUSH1 0x12 PUSH1 0x4 MSTORE PUSH1 0x24 PUSH1 0x0 REVERT JUMPDEST PUSH32 0x4E487B7100000000000000000000000000000000000000000000000000000000 PUSH1 0x0 MSTORE PUSH1 0x11 PUSH1 0x4 MSTORE PUSH1 0x24 PUSH1 0x0 REVERT JUMPDEST PUSH1 0x0 PUSH2 0xC9E DUP3 PUSH2 0x7B3 JUMP JUMPDEST SWAP2 POP PUSH2 0xCA9 DUP4 PUSH2 0x7B3 JUMP JUMPDEST SWAP3 POP DUP3 PUSH2 0xCB9 JUMPI PUSH2 0xCB8 PUSH2 0xC35 JUMP JUMPDEST JUMPDEST DUP3 DUP3 DIV SWAP1 POP SWAP3 SWAP2 POP POP JUMP JUMPDEST PUSH32 0x4E487B7100000000000000000000000000000000000000000000000000000000 PUSH1 0x0 MSTORE PUSH1 0x22 PUSH1 0x4 MSTORE PUSH1 0x24 PUSH1 0x0 REVERT JUMPDEST PUSH1 0x0 PUSH1 0x2 DUP3 DIV SWAP1 POP PUSH1 0x1 DUP3 AND DUP1 PUSH2 0xD0B JUMPI PUSH1 0x7F DUP3 AND SWAP2 POP JUMPDEST PUSH1 0x20 DUP3 LT DUP2 SUB PUSH2 0xD1E JUMPI PUSH2 0xD1D PUSH2 0xCC4 JUMP JUMPDEST JUMPDEST POP SWAP2 SWAP1 POP JUMP JUMPDEST PUSH1 0x0 DUP2 SWAP1 POP DUP2 PUSH1 0x0 MSTORE PUSH1 0x20 PUSH1 0x0 KECCAK256 SWAP1 POP SWAP2 SWAP1 POP JUMP JUMPDEST PUSH1 0x0 PUSH1 0x20 PUSH1 0x1F DUP4 ADD DIV SWAP1 POP SWAP2 SWAP1 POP JUMP JUMPDEST PUSH1 0x0 DUP3 DUP3 SHL SWAP1 POP SWAP3 SWAP2 POP POP JUMP JUMPDEST PUSH1 0x0 PUSH1 0x8 DUP4 MUL PUSH2 0xD86 PUSH32 0xFFFFFFFFFFFFFFFFFFFFFFFFFFFFFFFFFFFFFFFFFFFFFFFFFFFFFFFFFFFFFFFF DUP3 PUSH2 0xD49 JUMP JUMPDEST PUSH2 0xD90 DUP7 DUP4 PUSH2 0xD49 JUMP JUMPDEST SWAP6 POP DUP1 NOT DUP5 AND SWAP4 POP DUP1 DUP7 AND DUP5 OR SWAP3 POP POP POP SWAP4 SWAP3 POP POP POP JUMP JUMPDEST PUSH1 0x0 DUP2 SWAP1 POP SWAP2 SWAP1 POP JUMP JUMPDEST PUSH1 0x0 PUSH2 0xDCD PUSH2 0xDC8 PUSH2 0xDC3 DUP5 PUSH2 0x7B3 JUMP JUMPDEST PUSH2 0xDA8 JUMP JUMPDEST PUSH2 0x7B3 JUMP JUMPDEST SWAP1 POP SWAP2 SWAP1 POP JUMP JUMPDEST PUSH1 0x0 DUP2 SWAP1 POP SWAP2 SWAP1 POP JUMP JUMPDEST PUSH2 0xDE7 DUP4 PUSH2 0xDB2 JUMP JUMPDEST PUSH2 0xDFB PUSH2 0xDF3 DUP3 PUSH2 0xDD4 JUMP JUMPDEST DUP5 DUP5 SLOAD PUSH2 0xD56 JUMP JUMPDEST DUP3 SSTORE POP POP POP POP JUMP JUMPDEST PUSH1 0x0 SWAP1 JUMP JUMPDEST PUSH2 0xE10 PUSH2 0xE03 JUMP JUMPDEST PUSH2 0xE1B DUP2 DUP5 DUP5 PUSH2 0xDDE JUMP JUMPDEST POP POP POP JUMP JUMPDEST JUMPDEST DUP2 DUP2 LT ISZERO PUSH2 0xE3F JUMPI PUSH2 0xE34 PUSH1 0x0 DUP3 PUSH2 0xE08 JUMP JUMPDEST PUSH1 0x1 DUP2 ADD SWAP1 POP PUSH2 0xE21 JUMP JUMPDEST POP POP JUMP JUMPDEST PUSH1 0x1F DUP3 GT ISZERO PUSH2 0xE84 JUMPI PUSH2 0xE55 DUP2 PUSH2 0xD24 JUMP JUMPDEST PUSH2 0xE5E DUP5 PUSH2 0xD39 JUMP JUMPDEST DUP2 ADD PUSH1 0x20 DUP6 LT ISZERO PUSH2 0xE6D JUMPI DUP2 SWAP1 POP JUMPDEST PUSH2 0xE81 PUSH2 0xE79 DUP6 PUSH2 0xD39 JUMP JUMPDEST DUP4 ADD DUP3 PUSH2 0xE20 JUMP JUMPDEST POP POP JUMPDEST POP POP POP JUMP JUMPDEST PUSH1 0x0 DUP3 DUP3 SHR SWAP1 POP SWAP3 SWAP2 POP POP JUMP JUMPDEST PUSH1 0x0 PUSH2 0xEA7 PUSH1 0x0 NOT DUP5 PUSH1 0x8 MUL PUSH2 0xE89 JUMP JUMPDEST NOT DUP1 DUP4 AND SWAP2 POP POP SWAP3 SWAP2 POP POP JUMP JUMPDEST PUSH1 0x0 PUSH2 0xEC0 DUP4 DUP4 PUSH2 0xE96 JUMP JUMPDEST SWAP2 POP DUP3 PUSH1 0x2 MUL DUP3 OR SWAP1 POP SWAP3 SWAP2 POP POP JUMP JUMPDEST PUSH2 0xED9 DUP3 PUSH2 0x901 JUMP JUMPDEST PUSH8 0xFFFFFFFFFFFFFFFF DUP2 GT ISZERO PUSH2 0xEF2 JUMPI PUSH2 0xEF1 PUSH2 0xA40 JUMP JUMPDEST JUMPDEST PUSH2 0xEFC DUP3 SLOAD PUSH2 0xCF3 JUMP JUMPDEST PUSH2 0xF07 DUP3 DUP3 DUP6 PUSH2 0xE43 JUMP JUMPDEST PUSH1 0x0 PUSH1 0x20 SWAP1 POP PUSH1 0x1F DUP4 GT PUSH1 0x1 DUP2 EQ PUSH2 0xF3A JUMPI PUSH1 0x0 DUP5 ISZERO PUSH2 0xF28 JUMPI DUP3 DUP8 ADD MLOAD SWAP1 POP JUMPDEST PUSH2 0xF32 DUP6 DUP3 PUSH2 0xEB4 JUMP JUMPDEST DUP7 SSTORE POP PUSH2 0xF9A JUMP JUMPDEST PUSH1 0x1F NOT DUP5 AND PUSH2 0xF48 DUP7 PUSH2 0xD24 JUMP JUMPDEST PUSH1 0x0 JUMPDEST DUP3 DUP2 LT ISZERO PUSH2 0xF70 JUMPI DUP5 DUP10 ADD MLOAD DUP3 SSTORE PUSH1 0x1 DUP3 ADD SWAP2 POP PUSH1 0x20 DUP6 ADD SWAP5 POP PUSH1 0x20 DUP2 ADD SWAP1 POP PUSH2 0xF4B JUMP JUMPDEST DUP7 DUP4 LT ISZERO PUSH2 0xF8D JUMPI DUP5 DUP10 ADD MLOAD PUSH2 0xF89 PUSH1 0x1F DUP10 AND DUP3 PUSH2 0xE96 JUMP JUMPDEST DUP4 SSTORE POP JUMPDEST PUSH1 0x1 PUSH1 0x2 DUP9 MUL ADD DUP9 SSTORE POP POP POP JUMPDEST POP POP POP POP POP POP JUMP JUMPDEST PUSH32 0x506C6561736520656E74657220746865206D696E696D756D20616D6F756E7420 PUSH1 0x0 DUP3 ADD MSTORE PUSH32 0x6F66206574686572000000000000000000000000000000000000000000000000 PUSH1 0x20 DUP3 ADD MSTORE POP JUMP JUMPDEST PUSH1 0x0 PUSH2 0xFFE PUSH1 0x28 DUP4 PUSH2 0x90C JUMP JUMPDEST SWAP2 POP PUSH2 0x1009 DUP3 PUSH2 0xFA2 JUMP JUMPDEST PUSH1 0x40 DUP3 ADD SWAP1 POP SWAP2 SWAP1 POP JUMP JUMPDEST PUSH1 0x0 PUSH1 0x20 DUP3 ADD SWAP1 POP DUP2 DUP2 SUB PUSH1 0x0 DUP4 ADD MSTORE PUSH2 0x102D DUP2 PUSH2 0xFF1 JUMP JUMPDEST SWAP1 POP SWAP2 SWAP1 POP JUMP JUMPDEST PUSH1 0x0 PUSH2 0x103F DUP3 PUSH2 0x7B3 JUMP JUMPDEST SWAP2 POP PUSH32 0xFFFFFFFFFFFFFFFFFFFFFFFFFFFFFFFFFFFFFFFFFFFFFFFFFFFFFFFFFFFFFFFF DUP3 SUB PUSH2 0x1071 JUMPI PUSH2 0x1070 PUSH2 0xC64 JUMP JUMPDEST JUMPDEST PUSH1 0x1 DUP3 ADD SWAP1 POP SWAP2 SWAP1 POP JUMP INVALID LOG2 PUSH5 0x6970667358 0x22 SLT KECCAK256 CALLDATASIZE 0xA9 KECCAK256 PUSH6 0x44BE8783AEFC CODECOPY 0xB4 0xB2 MSTORE 0xBE GAS 0xC2 0xC7 PUSH25 0x970CF34B3152F6BBD8AD3259F464736F6C6343000811003300 "
        },
        "gasEstimates": {
            "creation": {
                "codeDepositCost": "854800",
                "executionCost": "infinite",
                "totalCost": "infinite"
            },
            "external": {
                "approveRequest(uint256)": "infinite",
                "approvers(address)": "2868",
                "approversCount()": "2429",
                "contribute()": "51021",
                "createRequest(string,uint256,address)": "infinite",
                "finalizeRequest(uint256)": "infinite",
                "manager()": "2556",
                "minimumContribution()": "2473",
                "requests(uint256)": "infinite"
            }
        },
        "methodIdentifiers": {
            "approveRequest(uint256)": "d7d1bbdb",
            "approvers(address)": "0a144391",
            "approversCount()": "82fde093",
            "contribute()": "d7bb99ba",
            "createRequest(string,uint256,address)": "8a9cfd55",
            "finalizeRequest(uint256)": "03441006",
            "manager()": "481c6a75",
            "minimumContribution()": "937e09b1",
            "requests(uint256)": "81d12c58"
        }
    },
    "storageLayout": {
        "storage": [
            {
                "astId": 57,
                "contract": "Campaign.sol:Campaign",
                "label": "manager",
                "offset": 0,
                "slot": "0",
                "type": "t_address"
            },
            {
                "astId": 59,
                "contract": "Campaign.sol:Campaign",
                "label": "minimumContribution",
                "offset": 0,
                "slot": "1",
                "type": "t_uint256"
            },
            {
                "astId": 63,
                "contract": "Campaign.sol:Campaign",
                "label": "approvers",
                "offset": 0,
                "slot": "2",
                "type": "t_mapping(t_address,t_bool)"
            },
            {
                "astId": 67,
                "contract": "Campaign.sol:Campaign",
                "label": "requests",
                "offset": 0,
                "slot": "3",
                "type": "t_array(t_struct(Request)55_storage)dyn_storage"
            },
            {
                "astId": 69,
                "contract": "Campaign.sol:Campaign",
                "label": "approversCount",
                "offset": 0,
                "slot": "4",
                "type": "t_uint256"
            }
        ],
        "types": {
            "t_address": {
                "encoding": "inplace",
                "label": "address",
                "numberOfBytes": "20"
            },
            "t_address_payable": {
                "encoding": "inplace",
                "label": "address payable",
                "numberOfBytes": "20"
            },
            "t_array(t_struct(Request)55_storage)dyn_storage": {
                "base": "t_struct(Request)55_storage",
                "encoding": "dynamic_array",
                "label": "struct Campaign.Request[]",
                "numberOfBytes": "32"
            },
            "t_bool": {
                "encoding": "inplace",
                "label": "bool",
                "numberOfBytes": "1"
            },
            "t_mapping(t_address,t_bool)": {
                "encoding": "mapping",
                "key": "t_address",
                "label": "mapping(address => bool)",
                "numberOfBytes": "32",
                "value": "t_bool"
            },
            "t_string_storage": {
                "encoding": "bytes",
                "label": "string",
                "numberOfBytes": "32"
            },
            "t_struct(Request)55_storage": {
                "encoding": "inplace",
                "label": "struct Campaign.Request",
                "members": [
                    {
                        "astId": 42,
                        "contract": "Campaign.sol:Campaign",
                        "label": "description",
                        "offset": 0,
                        "slot": "0",
                        "type": "t_string_storage"
                    },
                    {
                        "astId": 44,
                        "contract": "Campaign.sol:Campaign",
                        "label": "value",
                        "offset": 0,
                        "slot": "1",
                        "type": "t_uint256"
                    },
                    {
                        "astId": 46,
                        "contract": "Campaign.sol:Campaign",
                        "label": "recipient",
                        "offset": 0,
                        "slot": "2",
                        "type": "t_address_payable"
                    },
                    {
                        "astId": 48,
                        "contract": "Campaign.sol:Campaign",
                        "label": "complete",
                        "offset": 20,
                        "slot": "2",
                        "type": "t_bool"
                    },
                    {
                        "astId": 50,
                        "contract": "Campaign.sol:Campaign",
                        "label": "approvalCount",
                        "offset": 0,
                        "slot": "3",
                        "type": "t_uint256"
                    },
                    {
                        "astId": 54,
                        "contract": "Campaign.sol:Campaign",
                        "label": "approvals",
                        "offset": 0,
                        "slot": "4",
                        "type": "t_mapping(t_address,t_bool)"
                    }
                ],
                "numberOfBytes": "160"
            },
            "t_uint256": {
                "encoding": "inplace",
                "label": "uint256",
                "numberOfBytes": "32"
            }
        }
    },
    "userdoc": {
        "kind": "user",
        "methods": {},
        "version": 1
    }
}